{
	"data": {
		"bytecode": {
			"linkReferences": {
				"remix_accounts.sol": {
					"TestsAccounts": [
						{
							"length": 20,
							"start": 987
						}
					]
				},
				"remix_tests.sol": {
					"Assert": [
						{
							"length": 20,
							"start": 268
						},
						{
							"length": 20,
							"start": 442
						},
						{
							"length": 20,
							"start": 616
						},
						{
							"length": 20,
							"start": 793
						},
						{
							"length": 20,
							"start": 901
						},
						{
							"length": 20,
							"start": 957
						},
						{
							"length": 20,
							"start": 1291
						}
					]
				}
			},
			"object": "6080604052348015600e575f80fd5b506105938061001c5f395ff3fe608060405260043610610049575f3560e01c8063011e64921461004d57806312d487ea1461006357806336c00656146100835780637fea0d4b146100975780639074416d146100ab575b5f80fd5b348015610058575f80fd5b506100616100b3565b005b34801561006e575f80fd5b50604080516001815290519081900360200190f35b34801561008e575f80fd5b506100616102ac565b3480156100a2575f80fd5b5061006161031f565b61006161038b565b604080516339df137f60e01b8152600160048201526024810191909152600e60448201526d73686f756c64206265207472756560901b606482015273__$acbfb1c35000d78352310b16a054a6b106$__906339df137f90608401602060405180830381865af4158015610128573d5f803e3d5ffd5b505050506040513d601f19601f8201168201806040525081019061014c9190610511565b5060405163a079f1a360e01b8152600260048201526001602482015260606044820152601d60648201527f322073686f756c642062652067726561746572207468616e20746f2031000000608482015273__$acbfb1c35000d78352310b16a054a6b106$__9063a079f1a39060a401602060405180830381865af41580156101d6573d5f803e3d5ffd5b505050506040513d601f19601f820116820180604052508101906101fa9190610511565b5060405163575444a960e11b8152600260048201526003602482015260606044820152601c60648201527f322073686f756c64206265206c6573736572207468616e20746f203300000000608482015273__$acbfb1c35000d78352310b16a054a6b106$__9063aea889529060a4015b602060405180830381865af4158015610285573d5f803e3d5ffd5b505050506040513d601f19601f820116820180604052508101906102a99190610511565b50565b604051632b080af160e11b8152600160048201819052602482015260606044820152601a60648201527f312073686f756c64206e6f7420626520657175616c20746f2031000000000000608482015273__$acbfb1c35000d78352310b16a054a6b106$__9063561015e29060a40161026a565b60405163055e6bcb60e51b81526001600482018190526024820152606060448201526016606482015275312073686f756c6420626520657175616c20746f203160501b608482015273__$acbfb1c35000d78352310b16a054a6b106$__9063abcd79609060a40161026a565b60405163ce88b14560e01b81526001600482015273__$acbfb1c35000d78352310b16a054a6b106$__9063bfba5dd690339073__$1068a87eb54ed04c4e435de35b2ebf536f$__9063ce88b14590602401602060405180830381865af41580156103f7573d5f803e3d5ffd5b505050506040513d601f19601f8201168201806040525081019061041b9190610537565b6040516001600160e01b031960e085901b1681526001600160a01b0392831660048201529116602482015260606044820152600e60648201526d24b73b30b634b21039b2b73232b960911b608482015260a401602060405180830381865af4158015610489573d5f803e3d5ffd5b505050506040513d601f19601f820116820180604052508101906104ad9190610511565b5060405163055e6bcb60e51b815234600482015260646024820181905260606044830152600d908201526c496e76616c69642076616c756560981b608482015273__$acbfb1c35000d78352310b16a054a6b106$__9063abcd79609060a40161026a565b5f60208284031215610521575f80fd5b81518015158114610530575f80fd5b9392505050565b5f60208284031215610547575f80fd5b81516001600160a01b0381168114610530575f80fdfea26469706673582212204017ebcc03ff9a7b7814bb3b0783dc25e6234c97e6dd04c1b20de0a22064610664736f6c63430008190033",
			"opcodes": "PUSH1 0x80 PUSH1 0x40 MSTORE CALLVALUE DUP1 ISZERO PUSH1 0xE JUMPI PUSH0 DUP1 REVERT JUMPDEST POP PUSH2 0x593 DUP1 PUSH2 0x1C PUSH0 CODECOPY PUSH0 RETURN INVALID PUSH1 0x80 PUSH1 0x40 MSTORE PUSH1 0x4 CALLDATASIZE LT PUSH2 0x49 JUMPI PUSH0 CALLDATALOAD PUSH1 0xE0 SHR DUP1 PUSH4 0x11E6492 EQ PUSH2 0x4D JUMPI DUP1 PUSH4 0x12D487EA EQ PUSH2 0x63 JUMPI DUP1 PUSH4 0x36C00656 EQ PUSH2 0x83 JUMPI DUP1 PUSH4 0x7FEA0D4B EQ PUSH2 0x97 JUMPI DUP1 PUSH4 0x9074416D EQ PUSH2 0xAB JUMPI JUMPDEST PUSH0 DUP1 REVERT JUMPDEST CALLVALUE DUP1 ISZERO PUSH2 0x58 JUMPI PUSH0 DUP1 REVERT JUMPDEST POP PUSH2 0x61 PUSH2 0xB3 JUMP JUMPDEST STOP JUMPDEST CALLVALUE DUP1 ISZERO PUSH2 0x6E JUMPI PUSH0 DUP1 REVERT JUMPDEST POP PUSH1 0x40 DUP1 MLOAD PUSH1 0x1 DUP2 MSTORE SWAP1 MLOAD SWAP1 DUP2 SWAP1 SUB PUSH1 0x20 ADD SWAP1 RETURN JUMPDEST CALLVALUE DUP1 ISZERO PUSH2 0x8E JUMPI PUSH0 DUP1 REVERT JUMPDEST POP PUSH2 0x61 PUSH2 0x2AC JUMP JUMPDEST CALLVALUE DUP1 ISZERO PUSH2 0xA2 JUMPI PUSH0 DUP1 REVERT JUMPDEST POP PUSH2 0x61 PUSH2 0x31F JUMP JUMPDEST PUSH2 0x61 PUSH2 0x38B JUMP JUMPDEST PUSH1 0x40 DUP1 MLOAD PUSH4 0x39DF137F PUSH1 0xE0 SHL DUP2 MSTORE PUSH1 0x1 PUSH1 0x4 DUP3 ADD MSTORE PUSH1 0x24 DUP2 ADD SWAP2 SWAP1 SWAP2 MSTORE PUSH1 0xE PUSH1 0x44 DUP3 ADD MSTORE PUSH14 0x73686F756C642062652074727565 PUSH1 0x90 SHL PUSH1 0x64 DUP3 ADD MSTORE PUSH20 0x0 SWAP1 PUSH4 0x39DF137F SWAP1 PUSH1 0x84 ADD PUSH1 0x20 PUSH1 0x40 MLOAD DUP1 DUP4 SUB DUP2 DUP7 GAS DELEGATECALL ISZERO DUP1 ISZERO PUSH2 0x128 JUMPI RETURNDATASIZE PUSH0 DUP1 RETURNDATACOPY RETURNDATASIZE PUSH0 REVERT JUMPDEST POP POP POP POP PUSH1 0x40 MLOAD RETURNDATASIZE PUSH1 0x1F NOT PUSH1 0x1F DUP3 ADD AND DUP3 ADD DUP1 PUSH1 0x40 MSTORE POP DUP2 ADD SWAP1 PUSH2 0x14C SWAP2 SWAP1 PUSH2 0x511 JUMP JUMPDEST POP PUSH1 0x40 MLOAD PUSH4 0xA079F1A3 PUSH1 0xE0 SHL DUP2 MSTORE PUSH1 0x2 PUSH1 0x4 DUP3 ADD MSTORE PUSH1 0x1 PUSH1 0x24 DUP3 ADD MSTORE PUSH1 0x60 PUSH1 0x44 DUP3 ADD MSTORE PUSH1 0x1D PUSH1 0x64 DUP3 ADD MSTORE PUSH32 0x322073686F756C642062652067726561746572207468616E20746F2031000000 PUSH1 0x84 DUP3 ADD MSTORE PUSH20 0x0 SWAP1 PUSH4 0xA079F1A3 SWAP1 PUSH1 0xA4 ADD PUSH1 0x20 PUSH1 0x40 MLOAD DUP1 DUP4 SUB DUP2 DUP7 GAS DELEGATECALL ISZERO DUP1 ISZERO PUSH2 0x1D6 JUMPI RETURNDATASIZE PUSH0 DUP1 RETURNDATACOPY RETURNDATASIZE PUSH0 REVERT JUMPDEST POP POP POP POP PUSH1 0x40 MLOAD RETURNDATASIZE PUSH1 0x1F NOT PUSH1 0x1F DUP3 ADD AND DUP3 ADD DUP1 PUSH1 0x40 MSTORE POP DUP2 ADD SWAP1 PUSH2 0x1FA SWAP2 SWAP1 PUSH2 0x511 JUMP JUMPDEST POP PUSH1 0x40 MLOAD PUSH4 0x575444A9 PUSH1 0xE1 SHL DUP2 MSTORE PUSH1 0x2 PUSH1 0x4 DUP3 ADD MSTORE PUSH1 0x3 PUSH1 0x24 DUP3 ADD MSTORE PUSH1 0x60 PUSH1 0x44 DUP3 ADD MSTORE PUSH1 0x1C PUSH1 0x64 DUP3 ADD MSTORE PUSH32 0x322073686F756C64206265206C6573736572207468616E20746F203300000000 PUSH1 0x84 DUP3 ADD MSTORE PUSH20 0x0 SWAP1 PUSH4 0xAEA88952 SWAP1 PUSH1 0xA4 ADD JUMPDEST PUSH1 0x20 PUSH1 0x40 MLOAD DUP1 DUP4 SUB DUP2 DUP7 GAS DELEGATECALL ISZERO DUP1 ISZERO PUSH2 0x285 JUMPI RETURNDATASIZE PUSH0 DUP1 RETURNDATACOPY RETURNDATASIZE PUSH0 REVERT JUMPDEST POP POP POP POP PUSH1 0x40 MLOAD RETURNDATASIZE PUSH1 0x1F NOT PUSH1 0x1F DUP3 ADD AND DUP3 ADD DUP1 PUSH1 0x40 MSTORE POP DUP2 ADD SWAP1 PUSH2 0x2A9 SWAP2 SWAP1 PUSH2 0x511 JUMP JUMPDEST POP JUMP JUMPDEST PUSH1 0x40 MLOAD PUSH4 0x2B080AF1 PUSH1 0xE1 SHL DUP2 MSTORE PUSH1 0x1 PUSH1 0x4 DUP3 ADD DUP2 SWAP1 MSTORE PUSH1 0x24 DUP3 ADD MSTORE PUSH1 0x60 PUSH1 0x44 DUP3 ADD MSTORE PUSH1 0x1A PUSH1 0x64 DUP3 ADD MSTORE PUSH32 0x312073686F756C64206E6F7420626520657175616C20746F2031000000000000 PUSH1 0x84 DUP3 ADD MSTORE PUSH20 0x0 SWAP1 PUSH4 0x561015E2 SWAP1 PUSH1 0xA4 ADD PUSH2 0x26A JUMP JUMPDEST PUSH1 0x40 MLOAD PUSH4 0x55E6BCB PUSH1 0xE5 SHL DUP2 MSTORE PUSH1 0x1 PUSH1 0x4 DUP3 ADD DUP2 SWAP1 MSTORE PUSH1 0x24 DUP3 ADD MSTORE PUSH1 0x60 PUSH1 0x44 DUP3 ADD MSTORE PUSH1 0x16 PUSH1 0x64 DUP3 ADD MSTORE PUSH22 0x312073686F756C6420626520657175616C20746F2031 PUSH1 0x50 SHL PUSH1 0x84 DUP3 ADD MSTORE PUSH20 0x0 SWAP1 PUSH4 0xABCD7960 SWAP1 PUSH1 0xA4 ADD PUSH2 0x26A JUMP JUMPDEST PUSH1 0x40 MLOAD PUSH4 0xCE88B145 PUSH1 0xE0 SHL DUP2 MSTORE PUSH1 0x1 PUSH1 0x4 DUP3 ADD MSTORE PUSH20 0x0 SWAP1 PUSH4 0xBFBA5DD6 SWAP1 CALLER SWAP1 PUSH20 0x0 SWAP1 PUSH4 0xCE88B145 SWAP1 PUSH1 0x24 ADD PUSH1 0x20 PUSH1 0x40 MLOAD DUP1 DUP4 SUB DUP2 DUP7 GAS DELEGATECALL ISZERO DUP1 ISZERO PUSH2 0x3F7 JUMPI RETURNDATASIZE PUSH0 DUP1 RETURNDATACOPY RETURNDATASIZE PUSH0 REVERT JUMPDEST POP POP POP POP PUSH1 0x40 MLOAD RETURNDATASIZE PUSH1 0x1F NOT PUSH1 0x1F DUP3 ADD AND DUP3 ADD DUP1 PUSH1 0x40 MSTORE POP DUP2 ADD SWAP1 PUSH2 0x41B SWAP2 SWAP1 PUSH2 0x537 JUMP JUMPDEST PUSH1 0x40 MLOAD PUSH1 0x1 PUSH1 0x1 PUSH1 0xE0 SHL SUB NOT PUSH1 0xE0 DUP6 SWAP1 SHL AND DUP2 MSTORE PUSH1 0x1 PUSH1 0x1 PUSH1 0xA0 SHL SUB SWAP3 DUP4 AND PUSH1 0x4 DUP3 ADD MSTORE SWAP2 AND PUSH1 0x24 DUP3 ADD MSTORE PUSH1 0x60 PUSH1 0x44 DUP3 ADD MSTORE PUSH1 0xE PUSH1 0x64 DUP3 ADD MSTORE PUSH14 0x24B73B30B634B21039B2B73232B9 PUSH1 0x91 SHL PUSH1 0x84 DUP3 ADD MSTORE PUSH1 0xA4 ADD PUSH1 0x20 PUSH1 0x40 MLOAD DUP1 DUP4 SUB DUP2 DUP7 GAS DELEGATECALL ISZERO DUP1 ISZERO PUSH2 0x489 JUMPI RETURNDATASIZE PUSH0 DUP1 RETURNDATACOPY RETURNDATASIZE PUSH0 REVERT JUMPDEST POP POP POP POP PUSH1 0x40 MLOAD RETURNDATASIZE PUSH1 0x1F NOT PUSH1 0x1F DUP3 ADD AND DUP3 ADD DUP1 PUSH1 0x40 MSTORE POP DUP2 ADD SWAP1 PUSH2 0x4AD SWAP2 SWAP1 PUSH2 0x511 JUMP JUMPDEST POP PUSH1 0x40 MLOAD PUSH4 0x55E6BCB PUSH1 0xE5 SHL DUP2 MSTORE CALLVALUE PUSH1 0x4 DUP3 ADD MSTORE PUSH1 0x64 PUSH1 0x24 DUP3 ADD DUP2 SWAP1 MSTORE PUSH1 0x60 PUSH1 0x44 DUP4 ADD MSTORE PUSH1 0xD SWAP1 DUP3 ADD MSTORE PUSH13 0x496E76616C69642076616C7565 PUSH1 0x98 SHL PUSH1 0x84 DUP3 ADD MSTORE PUSH20 0x0 SWAP1 PUSH4 0xABCD7960 SWAP1 PUSH1 0xA4 ADD PUSH2 0x26A JUMP JUMPDEST PUSH0 PUSH1 0x20 DUP3 DUP5 SUB SLT ISZERO PUSH2 0x521 JUMPI PUSH0 DUP1 REVERT JUMPDEST DUP2 MLOAD DUP1 ISZERO ISZERO DUP2 EQ PUSH2 0x530 JUMPI PUSH0 DUP1 REVERT JUMPDEST SWAP4 SWAP3 POP POP POP JUMP JUMPDEST PUSH0 PUSH1 0x20 DUP3 DUP5 SUB SLT ISZERO PUSH2 0x547 JUMPI PUSH0 DUP1 REVERT JUMPDEST DUP2 MLOAD PUSH1 0x1 PUSH1 0x1 PUSH1 0xA0 SHL SUB DUP2 AND DUP2 EQ PUSH2 0x530 JUMPI PUSH0 DUP1 REVERT INVALID LOG2 PUSH5 0x6970667358 0x22 SLT KECCAK256 BLOCKHASH OR 0xEB 0xCC SUB SELFDESTRUCT SWAP11 PUSH28 0x7814BB3B0783DC25E6234C97E6DD04C1B20DE0A22064610664736F6C PUSH4 0x43000819 STOP CALLER "
		},
		"gasEstimates": {
			"creation": {
				"codeDepositCost": "285400",
				"executionCost": "322",
				"totalCost": "285722"
			},
			"external": {
				"beforeAll()": "infinite",
				"checkFailure()": "infinite",
				"checkSenderAndValue()": "infinite",
				"checkSuccess()": "infinite",
				"checkSuccess2()": "170"
			}
		},
		"methodIdentifiers": {
			"beforeAll()": "7fea0d4b",
			"checkFailure()": "36c00656",
			"checkSenderAndValue()": "9074416d",
			"checkSuccess()": "011e6492",
			"checkSuccess2()": "12d487ea"
		}
	},
	"abi": [
		{
			"inputs": [],
			"name": "beforeAll",
			"outputs": [],
			"stateMutability": "nonpayable",
			"type": "function"
		},
		{
			"inputs": [],
			"name": "checkFailure",
			"outputs": [],
			"stateMutability": "nonpayable",
			"type": "function"
		},
		{
			"inputs": [],
			"name": "checkSenderAndValue",
			"outputs": [],
			"stateMutability": "payable",
			"type": "function"
		},
		{
			"inputs": [],
			"name": "checkSuccess",
			"outputs": [],
			"stateMutability": "nonpayable",
			"type": "function"
		},
		{
			"inputs": [],
			"name": "checkSuccess2",
			"outputs": [
				{
					"internalType": "bool",
					"name": "",
					"type": "bool"
				}
			],
			"stateMutability": "pure",
			"type": "function"
		}
	]
}