{
	"Contracts/CreoEvtolBlockchain.sol": {
		"CreoEvtolBlockchain": {
			"abi": [
				{
					"inputs": [],
					"stateMutability": "nonpayable",
					"type": "constructor"
				},
				{
					"anonymous": false,
					"inputs": [
						{
							"indexed": true,
							"internalType": "address",
							"name": "newContract",
							"type": "address"
						},
						{
							"indexed": false,
							"internalType": "uint256",
							"name": "timestamp",
							"type": "uint256"
						}
					],
					"name": "ContractUpgraded",
					"type": "event"
				},
				{
					"anonymous": false,
					"inputs": [
						{
							"indexed": true,
							"internalType": "bytes32",
							"name": "reportHash",
							"type": "bytes32"
						},
						{
							"indexed": false,
							"internalType": "uint256",
							"name": "timestamp",
							"type": "uint256"
						}
					],
					"name": "CrashReportStored",
					"type": "event"
				},
				{
					"anonymous": false,
					"inputs": [
						{
							"indexed": true,
							"internalType": "address",
							"name": "verifier",
							"type": "address"
						},
						{
							"indexed": false,
							"internalType": "string",
							"name": "evtolId",
							"type": "string"
						},
						{
							"indexed": false,
							"internalType": "string",
							"name": "flightData",
							"type": "string"
						},
						{
							"indexed": false,
							"internalType": "uint256",
							"name": "timestamp",
							"type": "uint256"
						}
					],
					"name": "FlightPathVerified",
					"type": "event"
				},
				{
					"anonymous": false,
					"inputs": [
						{
							"indexed": true,
							"internalType": "address",
							"name": "operator",
							"type": "address"
						},
						{
							"indexed": false,
							"internalType": "string",
							"name": "evtolId",
							"type": "string"
						},
						{
							"indexed": false,
							"internalType": "uint256",
							"name": "timestamp",
							"type": "uint256"
						}
					],
					"name": "MaintenanceCheckPerformed",
					"type": "event"
				},
				{
					"anonymous": false,
					"inputs": [
						{
							"indexed": true,
							"internalType": "address",
							"name": "sender",
							"type": "address"
						},
						{
							"indexed": false,
							"internalType": "string",
							"name": "timestamp",
							"type": "string"
						},
						{
							"indexed": false,
							"internalType": "string",
							"name": "data",
							"type": "string"
						}
					],
					"name": "TelemetryDataLogged",
					"type": "event"
				},
				{
					"inputs": [
						{
							"internalType": "address",
							"name": "",
							"type": "address"
						}
					],
					"name": "authorizedRegulators",
					"outputs": [
						{
							"internalType": "bool",
							"name": "",
							"type": "bool"
						}
					],
					"stateMutability": "view",
					"type": "function"
				},
				{
					"inputs": [
						{
							"internalType": "address",
							"name": "regulator",
							"type": "address"
						}
					],
					"name": "grantRegulatorAccess",
					"outputs": [],
					"stateMutability": "nonpayable",
					"type": "function"
				},
				{
					"inputs": [
						{
							"internalType": "string",
							"name": "timestamp",
							"type": "string"
						},
						{
							"internalType": "string",
							"name": "data",
							"type": "string"
						}
					],
					"name": "logTelemetryData",
					"outputs": [],
					"stateMutability": "nonpayable",
					"type": "function"
				},
				{
					"inputs": [],
					"name": "owner",
					"outputs": [
						{
							"internalType": "address",
							"name": "",
							"type": "address"
						}
					],
					"stateMutability": "view",
					"type": "function"
				},
				{
					"inputs": [
						{
							"internalType": "string",
							"name": "evtolId",
							"type": "string"
						}
					],
					"name": "performMaintenanceCheck",
					"outputs": [],
					"stateMutability": "nonpayable",
					"type": "function"
				},
				{
					"inputs": [
						{
							"internalType": "bytes32",
							"name": "hash",
							"type": "bytes32"
						}
					],
					"name": "retrieveDataFromIPFS",
					"outputs": [
						{
							"internalType": "string",
							"name": "",
							"type": "string"
						}
					],
					"stateMutability": "view",
					"type": "function"
				},
				{
					"inputs": [
						{
							"internalType": "string",
							"name": "",
							"type": "string"
						},
						{
							"internalType": "string",
							"name": "timestamp",
							"type": "string"
						}
					],
					"name": "retrieveTelemetryData",
					"outputs": [
						{
							"internalType": "string",
							"name": "",
							"type": "string"
						}
					],
					"stateMutability": "view",
					"type": "function"
				},
				{
					"inputs": [
						{
							"internalType": "address",
							"name": "regulator",
							"type": "address"
						}
					],
					"name": "revokeRegulatorAccess",
					"outputs": [],
					"stateMutability": "nonpayable",
					"type": "function"
				},
				{
					"inputs": [
						{
							"internalType": "bytes32",
							"name": "reportHash",
							"type": "bytes32"
						},
						{
							"internalType": "bytes",
							"name": "reportData",
							"type": "bytes"
						}
					],
					"name": "storeCrashReport",
					"outputs": [],
					"stateMutability": "nonpayable",
					"type": "function"
				},
				{
					"inputs": [
						{
							"internalType": "address",
							"name": "newContract",
							"type": "address"
						}
					],
					"name": "upgradeContract",
					"outputs": [],
					"stateMutability": "nonpayable",
					"type": "function"
				},
				{
					"inputs": [
						{
							"internalType": "string",
							"name": "evtolId",
							"type": "string"
						},
						{
							"internalType": "string",
							"name": "flightData",
							"type": "string"
						}
					],
					"name": "verifyFlightPath",
					"outputs": [],
					"stateMutability": "nonpayable",
					"type": "function"
				}
			],
			"devdoc": {
				"details": "A smart contract for managing telemetry data, maintenance checks, flight path verification, crash report storage, and contract upgrading for EVTOL (Electric Vertical Take-Off and Landing) vehicles.",
				"kind": "dev",
				"methods": {
					"constructor": {
						"details": "Constructor function"
					},
					"grantRegulatorAccess(address)": {
						"details": "Grants access to a regulator",
						"params": {
							"regulator": "The address of the regulator to grant access"
						}
					},
					"logTelemetryData(string,string)": {
						"details": "Logs telemetry data for an EVTOL vehicle",
						"params": {
							"data": "The telemetry data",
							"timestamp": "The timestamp of the telemetry data"
						}
					},
					"performMaintenanceCheck(string)": {
						"details": "Performs a maintenance check on an EVTOL vehicle",
						"params": {
							"evtolId": "The unique identifier of the EVTOL vehicle"
						}
					},
					"retrieveDataFromIPFS(bytes32)": {
						"details": "Retrieves data from IPFS",
						"params": {
							"hash": "The hash of the data to retrieve"
						},
						"returns": {
							"_0": "The data"
						}
					},
					"retrieveTelemetryData(string,string)": {
						"details": "Retrieves telemetry data for an EVTOL vehicle",
						"params": {
							"timestamp": "The timestamp of the telemetry data to retrieve"
						},
						"returns": {
							"_0": "The telemetry data"
						}
					},
					"revokeRegulatorAccess(address)": {
						"details": "Revokes access from a regulator",
						"params": {
							"regulator": "The address of the regulator to revoke access"
						}
					},
					"storeCrashReport(bytes32,bytes)": {
						"details": "Stores a crash report for an EVTOL vehicle",
						"params": {
							"reportData": "The data of the crash report",
							"reportHash": "The hash of the crash report"
						}
					},
					"upgradeContract(address)": {
						"details": "Upgrades the contract to a new version",
						"params": {
							"newContract": "The address of the new contract"
						}
					},
					"verifyFlightPath(string,string)": {
						"details": "Verifies the flight path of an EVTOL vehicle",
						"params": {
							"evtolId": "The unique identifier of the EVTOL vehicle",
							"flightData": "The flight data to verify"
						}
					}
				},
				"title": "CreoEvtolBlockchain",
				"version": 1
			},
			"evm": {
				"assembly": "    /* \"Contracts/CreoEvtolBlockchain.sol\":304:6711  contract CreoEvtolBlockchain {... */\n  mstore(0x40, 0x80)\n    /* \"Contracts/CreoEvtolBlockchain.sol\":2870:2919  constructor() {... */\n  callvalue\n  dup1\n  iszero\n  tag_1\n  jumpi\n  0x00\n  dup1\n  revert\ntag_1:\n  pop\n    /* \"Contracts/CreoEvtolBlockchain.sol\":2894:2899  owner */\n  0x04\n    /* \"Contracts/CreoEvtolBlockchain.sol\":2894:2912  owner = msg.sender */\n  dup1\n  sload\n  not(sub(shl(0xa0, 0x01), 0x01))\n  and\n    /* \"Contracts/CreoEvtolBlockchain.sol\":2902:2912  msg.sender */\n  caller\n    /* \"Contracts/CreoEvtolBlockchain.sol\":2894:2912  owner = msg.sender */\n  or\n  swap1\n  sstore\n    /* \"Contracts/CreoEvtolBlockchain.sol\":304:6711  contract CreoEvtolBlockchain {... */\n  dataSize(sub_0)\n  dup1\n  dataOffset(sub_0)\n  0x00\n  codecopy\n  0x00\n  return\nstop\n\nsub_0: assembly {\n        /* \"Contracts/CreoEvtolBlockchain.sol\":304:6711  contract CreoEvtolBlockchain {... */\n      mstore(0x40, 0x80)\n      callvalue\n      dup1\n      iszero\n      tag_1\n      jumpi\n      0x00\n      dup1\n      revert\n    tag_1:\n      pop\n      jumpi(tag_2, lt(calldatasize, 0x04))\n      shr(0xe0, calldataload(0x00))\n      dup1\n      0x7d8993b9\n      gt\n      tag_14\n      jumpi\n      dup1\n      0x7d8993b9\n      eq\n      tag_8\n      jumpi\n      dup1\n      0x8da5cb5b\n      eq\n      tag_9\n      jumpi\n      dup1\n      0xa222b707\n      eq\n      tag_10\n      jumpi\n      dup1\n      0xeb2c0223\n      eq\n      tag_11\n      jumpi\n      dup1\n      0xec1e74bb\n      eq\n      tag_12\n      jumpi\n      dup1\n      0xeedeb218\n      eq\n      tag_13\n      jumpi\n      0x00\n      dup1\n      revert\n    tag_14:\n      dup1\n      0x17b702e5\n      eq\n      tag_3\n      jumpi\n      dup1\n      0x358ce0b1\n      eq\n      tag_4\n      jumpi\n      dup1\n      0x38ddf0ac\n      eq\n      tag_5\n      jumpi\n      dup1\n      0x5815913c\n      eq\n      tag_6\n      jumpi\n      dup1\n      0x79be7659\n      eq\n      tag_7\n      jumpi\n    tag_2:\n      0x00\n      dup1\n      revert\n        /* \"Contracts/CreoEvtolBlockchain.sol\":4198:4377  function retrieveTelemetryData(string memory /* evtolId */, string memory timestamp) external view returns (string memory) {... */\n    tag_3:\n      tag_15\n      tag_16\n      calldatasize\n      0x04\n      tag_17\n      jump\t// in\n    tag_16:\n      tag_18\n      jump\t// in\n    tag_15:\n      mload(0x40)\n      tag_19\n      swap2\n      swap1\n      tag_20\n      jump\t// in\n    tag_19:\n      mload(0x40)\n      dup1\n      swap2\n      sub\n      swap1\n      return\n        /* \"Contracts/CreoEvtolBlockchain.sol\":3608:4012  function logTelemetryData(string memory timestamp, string memory data) external {... */\n    tag_4:\n      tag_21\n      tag_22\n      calldatasize\n      0x04\n      tag_17\n      jump\t// in\n    tag_22:\n      tag_23\n      jump\t// in\n    tag_21:\n      stop\n        /* \"Contracts/CreoEvtolBlockchain.sol\":4751:4873  function retrieveDataFromIPFS(bytes32 hash) external view returns (string memory) {... */\n    tag_5:\n      tag_15\n      tag_25\n      calldatasize\n      0x04\n      tag_26\n      jump\t// in\n    tag_25:\n      tag_27\n      jump\t// in\n        /* \"Contracts/CreoEvtolBlockchain.sol\":1364:1416  mapping(address => bool) public authorizedRegulators */\n    tag_6:\n      tag_29\n      tag_30\n      calldatasize\n      0x04\n      tag_31\n      jump\t// in\n    tag_30:\n      mstore(0x20, 0x01)\n      0x00\n      swap1\n      dup2\n      mstore\n      0x40\n      swap1\n      keccak256\n      sload\n      0xff\n      and\n      dup2\n      jump\n    tag_29:\n      mload(0x40)\n        /* \"#utility.yul\":2578:2592   */\n      swap1\n      iszero\n        /* \"#utility.yul\":2571:2593   */\n      iszero\n        /* \"#utility.yul\":2553:2594   */\n      dup2\n      mstore\n        /* \"#utility.yul\":2541:2543   */\n      0x20\n        /* \"#utility.yul\":2526:2544   */\n      add\n        /* \"Contracts/CreoEvtolBlockchain.sol\":1364:1416  mapping(address => bool) public authorizedRegulators */\n      tag_19\n        /* \"#utility.yul\":2413:2600   */\n      jump\n        /* \"Contracts/CreoEvtolBlockchain.sol\":3310:3435  function revokeRegulatorAccess(address regulator) external onlyOwner {... */\n    tag_7:\n      tag_21\n      tag_36\n      calldatasize\n      0x04\n      tag_31\n      jump\t// in\n    tag_36:\n      tag_37\n      jump\t// in\n        /* \"Contracts/CreoEvtolBlockchain.sol\":5577:6048  function verifyFlightPath(string memory evtolId, string memory flightData) external onlyRegulator {... */\n    tag_8:\n      tag_21\n      tag_39\n      calldatasize\n      0x04\n      tag_17\n      jump\t// in\n    tag_39:\n      tag_40\n      jump\t// in\n        /* \"Contracts/CreoEvtolBlockchain.sol\":1655:1675  address public owner */\n    tag_9:\n      sload(0x04)\n      tag_41\n      swap1\n      sub(shl(0xa0, 0x01), 0x01)\n      and\n      dup2\n      jump\n    tag_41:\n      mload(0x40)\n      sub(shl(0xa0, 0x01), 0x01)\n        /* \"#utility.yul\":2769:2801   */\n      swap1\n      swap2\n      and\n        /* \"#utility.yul\":2751:2802   */\n      dup2\n      mstore\n        /* \"#utility.yul\":2739:2741   */\n      0x20\n        /* \"#utility.yul\":2724:2742   */\n      add\n        /* \"Contracts/CreoEvtolBlockchain.sol\":1655:1675  address public owner */\n      tag_19\n        /* \"#utility.yul\":2605:2808   */\n      jump\n        /* \"Contracts/CreoEvtolBlockchain.sol\":5021:5382  function performMaintenanceCheck(string memory evtolId) external onlyRegulator {... */\n    tag_10:\n      tag_21\n      tag_46\n      calldatasize\n      0x04\n      tag_47\n      jump\t// in\n    tag_46:\n      tag_48\n      jump\t// in\n        /* \"Contracts/CreoEvtolBlockchain.sol\":6576:6709  function upgradeContract(address newContract) external onlyOwner {... */\n    tag_11:\n      tag_21\n      tag_50\n      calldatasize\n      0x04\n      tag_31\n      jump\t// in\n    tag_50:\n      tag_51\n      jump\t// in\n        /* \"Contracts/CreoEvtolBlockchain.sol\":3051:3174  function grantRegulatorAccess(address regulator) external onlyOwner {... */\n    tag_12:\n      tag_21\n      tag_53\n      calldatasize\n      0x04\n      tag_31\n      jump\t// in\n    tag_53:\n      tag_54\n      jump\t// in\n        /* \"Contracts/CreoEvtolBlockchain.sol\":6233:6445  function storeCrashReport(bytes32 reportHash, bytes calldata reportData) external onlyRegulator {... */\n    tag_13:\n      tag_21\n      tag_56\n      calldatasize\n      0x04\n      tag_57\n      jump\t// in\n    tag_56:\n      tag_58\n      jump\t// in\n        /* \"Contracts/CreoEvtolBlockchain.sol\":4198:4377  function retrieveTelemetryData(string memory /* evtolId */, string memory timestamp) external view returns (string memory) {... */\n    tag_18:\n        /* \"Contracts/CreoEvtolBlockchain.sol\":4348:4358  msg.sender */\n      caller\n        /* \"Contracts/CreoEvtolBlockchain.sol\":4338:4347  evtolData */\n      0x00\n        /* \"Contracts/CreoEvtolBlockchain.sol\":4338:4359  evtolData[msg.sender] */\n      swap1\n      dup2\n      mstore\n      0x20\n      dup2\n      swap1\n      mstore\n      0x40\n      swap1\n      dup2\n      swap1\n      keccak256\n        /* \"Contracts/CreoEvtolBlockchain.sol\":4338:4370  evtolData[msg.sender][timestamp] */\n      swap1\n      mload\n        /* \"Contracts/CreoEvtolBlockchain.sol\":4306:4319  string memory */\n      0x60\n      swap2\n        /* \"Contracts/CreoEvtolBlockchain.sol\":4338:4359  evtolData[msg.sender] */\n      swap1\n        /* \"Contracts/CreoEvtolBlockchain.sol\":4338:4370  evtolData[msg.sender][timestamp] */\n      tag_60\n      swap1\n        /* \"Contracts/CreoEvtolBlockchain.sol\":4360:4369  timestamp */\n      dup5\n      swap1\n        /* \"Contracts/CreoEvtolBlockchain.sol\":4338:4370  evtolData[msg.sender][timestamp] */\n      tag_61\n      jump\t// in\n    tag_60:\n      swap1\n      dup2\n      mstore\n      0x20\n      add\n      mload(0x40)\n      dup1\n      swap2\n      sub\n      swap1\n      keccak256\n        /* \"Contracts/CreoEvtolBlockchain.sol\":4331:4370  return evtolData[msg.sender][timestamp] */\n      dup1\n      sload\n      tag_62\n      swap1\n      tag_63\n      jump\t// in\n    tag_62:\n      dup1\n      0x1f\n      add\n      0x20\n      dup1\n      swap2\n      div\n      mul\n      0x20\n      add\n      mload(0x40)\n      swap1\n      dup2\n      add\n      0x40\n      mstore\n      dup1\n      swap3\n      swap2\n      swap1\n      dup2\n      dup2\n      mstore\n      0x20\n      add\n      dup3\n      dup1\n      sload\n      tag_64\n      swap1\n      tag_63\n      jump\t// in\n    tag_64:\n      dup1\n      iszero\n      tag_65\n      jumpi\n      dup1\n      0x1f\n      lt\n      tag_66\n      jumpi\n      0x0100\n      dup1\n      dup4\n      sload\n      div\n      mul\n      dup4\n      mstore\n      swap2\n      0x20\n      add\n      swap2\n      jump(tag_65)\n    tag_66:\n      dup3\n      add\n      swap2\n      swap1\n      0x00\n      mstore\n      keccak256(0x00, 0x20)\n      swap1\n    tag_67:\n      dup2\n      sload\n      dup2\n      mstore\n      swap1\n      0x01\n      add\n      swap1\n      0x20\n      add\n      dup1\n      dup4\n      gt\n      tag_67\n      jumpi\n      dup3\n      swap1\n      sub\n      0x1f\n      and\n      dup3\n      add\n      swap2\n    tag_65:\n      pop\n      pop\n      pop\n      pop\n      pop\n      swap1\n      pop\n        /* \"Contracts/CreoEvtolBlockchain.sol\":4198:4377  function retrieveTelemetryData(string memory /* evtolId */, string memory timestamp) external view returns (string memory) {... */\n      swap3\n      swap2\n      pop\n      pop\n      jump\t// out\n        /* \"Contracts/CreoEvtolBlockchain.sol\":3608:4012  function logTelemetryData(string memory timestamp, string memory data) external {... */\n    tag_23:\n        /* \"Contracts/CreoEvtolBlockchain.sol\":3698:3728  TelemetryData memory telemetry */\n      tag_69\n      mload(0x40)\n      dup1\n      0x60\n      add\n      0x40\n      mstore\n      dup1\n      and(sub(shl(0xa0, 0x01), 0x01), 0x00)\n      dup2\n      mstore\n      0x20\n      add\n      0x60\n      dup2\n      mstore\n      0x20\n      add\n      0x60\n      dup2\n      mstore\n      pop\n      swap1\n      jump\n    tag_69:\n        /* \"Contracts/CreoEvtolBlockchain.sol\":3757:3767  msg.sender */\n      caller\n        /* \"Contracts/CreoEvtolBlockchain.sol\":3738:3767  telemetry.sender = msg.sender */\n      dup1\n      dup3\n      mstore\n        /* \"Contracts/CreoEvtolBlockchain.sol\":3777:3796  telemetry.timestamp */\n      0x20\n      dup1\n      dup4\n      add\n        /* \"Contracts/CreoEvtolBlockchain.sol\":3777:3808  telemetry.timestamp = timestamp */\n      dup6\n      dup2\n      mstore\n        /* \"Contracts/CreoEvtolBlockchain.sol\":3818:3832  telemetry.data */\n      0x40\n      dup1\n      dup6\n      add\n        /* \"Contracts/CreoEvtolBlockchain.sol\":3818:3839  telemetry.data = data */\n      dup7\n      swap1\n      mstore\n        /* \"Contracts/CreoEvtolBlockchain.sol\":3738:3754  telemetry.sender */\n      0x00\n        /* \"Contracts/CreoEvtolBlockchain.sol\":3882:3903  evtolData[msg.sender] */\n      swap4\n      dup5\n      mstore\n      swap2\n      dup4\n      swap1\n      mstore\n      swap2\n      dup2\n      swap1\n      keccak256\n        /* \"Contracts/CreoEvtolBlockchain.sol\":3904:3923  telemetry.timestamp */\n      swap2\n      mload\n        /* \"Contracts/CreoEvtolBlockchain.sol\":3882:3924  evtolData[msg.sender][telemetry.timestamp] */\n      swap1\n      mload\n        /* \"Contracts/CreoEvtolBlockchain.sol\":3835:3839  data */\n      dup5\n      swap3\n        /* \"Contracts/CreoEvtolBlockchain.sol\":3882:3903  evtolData[msg.sender] */\n      swap2\n        /* \"Contracts/CreoEvtolBlockchain.sol\":3882:3924  evtolData[msg.sender][telemetry.timestamp] */\n      tag_71\n      swap2\n      tag_61\n      jump\t// in\n    tag_71:\n      swap1\n      dup2\n      mstore\n      0x20\n      add\n      mload(0x40)\n      dup1\n      swap2\n      sub\n      swap1\n      keccak256\n        /* \"Contracts/CreoEvtolBlockchain.sol\":3882:3941  evtolData[msg.sender][telemetry.timestamp] = telemetry.data */\n      swap1\n      dup2\n      tag_72\n      swap2\n      swap1\n      tag_73\n      jump\t// in\n    tag_72:\n      pop\n        /* \"Contracts/CreoEvtolBlockchain.sol\":3977:3987  msg.sender */\n      caller\n      sub(shl(0xa0, 0x01), 0x01)\n        /* \"Contracts/CreoEvtolBlockchain.sol\":3957:4005  TelemetryDataLogged(msg.sender, timestamp, data) */\n      and\n      0x782fdc1bab62ff34efbcebcd9f74a898276f812172674da94edde8273a3b0b4a\n        /* \"Contracts/CreoEvtolBlockchain.sol\":3989:3998  timestamp */\n      dup5\n        /* \"Contracts/CreoEvtolBlockchain.sol\":4000:4004  data */\n      dup5\n        /* \"Contracts/CreoEvtolBlockchain.sol\":3957:4005  TelemetryDataLogged(msg.sender, timestamp, data) */\n      mload(0x40)\n      tag_74\n      swap3\n      swap2\n      swap1\n      tag_75\n      jump\t// in\n    tag_74:\n      mload(0x40)\n      dup1\n      swap2\n      sub\n      swap1\n      log2\n        /* \"Contracts/CreoEvtolBlockchain.sol\":3688:4012  {... */\n      pop\n        /* \"Contracts/CreoEvtolBlockchain.sol\":3608:4012  function logTelemetryData(string memory timestamp, string memory data) external {... */\n      pop\n      pop\n      jump\t// out\n        /* \"Contracts/CreoEvtolBlockchain.sol\":4751:4873  function retrieveDataFromIPFS(bytes32 hash) external view returns (string memory) {... */\n    tag_27:\n        /* \"Contracts/CreoEvtolBlockchain.sol\":4850:4866  dataHashes[hash] */\n      0x00\n      dup2\n      dup2\n      mstore\n        /* \"Contracts/CreoEvtolBlockchain.sol\":4850:4860  dataHashes */\n      0x02\n        /* \"Contracts/CreoEvtolBlockchain.sol\":4850:4866  dataHashes[hash] */\n      0x20\n      mstore\n      0x40\n      swap1\n      keccak256\n        /* \"Contracts/CreoEvtolBlockchain.sol\":4843:4866  return dataHashes[hash] */\n      dup1\n      sload\n        /* \"Contracts/CreoEvtolBlockchain.sol\":4818:4831  string memory */\n      0x60\n      swap2\n        /* \"Contracts/CreoEvtolBlockchain.sol\":4850:4866  dataHashes[hash] */\n      swap1\n        /* \"Contracts/CreoEvtolBlockchain.sol\":4843:4866  return dataHashes[hash] */\n      tag_77\n      swap1\n      tag_63\n      jump\t// in\n    tag_77:\n      dup1\n      0x1f\n      add\n      0x20\n      dup1\n      swap2\n      div\n      mul\n      0x20\n      add\n      mload(0x40)\n      swap1\n      dup2\n      add\n      0x40\n      mstore\n      dup1\n      swap3\n      swap2\n      swap1\n      dup2\n      dup2\n      mstore\n      0x20\n      add\n      dup3\n      dup1\n      sload\n      tag_78\n      swap1\n      tag_63\n      jump\t// in\n    tag_78:\n      dup1\n      iszero\n      tag_79\n      jumpi\n      dup1\n      0x1f\n      lt\n      tag_80\n      jumpi\n      0x0100\n      dup1\n      dup4\n      sload\n      div\n      mul\n      dup4\n      mstore\n      swap2\n      0x20\n      add\n      swap2\n      jump(tag_79)\n    tag_80:\n      dup3\n      add\n      swap2\n      swap1\n      0x00\n      mstore\n      keccak256(0x00, 0x20)\n      swap1\n    tag_81:\n      dup2\n      sload\n      dup2\n      mstore\n      swap1\n      0x01\n      add\n      swap1\n      0x20\n      add\n      dup1\n      dup4\n      gt\n      tag_81\n      jumpi\n      dup3\n      swap1\n      sub\n      0x1f\n      and\n      dup3\n      add\n      swap2\n    tag_79:\n      pop\n      pop\n      pop\n      pop\n      pop\n      swap1\n      pop\n        /* \"Contracts/CreoEvtolBlockchain.sol\":4751:4873  function retrieveDataFromIPFS(bytes32 hash) external view returns (string memory) {... */\n      swap2\n      swap1\n      pop\n      jump\t// out\n        /* \"Contracts/CreoEvtolBlockchain.sol\":3310:3435  function revokeRegulatorAccess(address regulator) external onlyOwner {... */\n    tag_37:\n        /* \"Contracts/CreoEvtolBlockchain.sol\":2528:2533  owner */\n      and(sub(shl(0xa0, 0x01), 0x01), sload(0x04))\n        /* \"Contracts/CreoEvtolBlockchain.sol\":2514:2524  msg.sender */\n      caller\n        /* \"Contracts/CreoEvtolBlockchain.sol\":2514:2533  msg.sender == owner */\n      eq\n        /* \"Contracts/CreoEvtolBlockchain.sol\":2506:2581  require(msg.sender == owner, \"Only contract owner can perform this action\") */\n      tag_83\n      jumpi\n      mload(0x40)\n      shl(0xe5, 0x461bcd)\n      dup2\n      mstore\n      0x04\n      add\n      tag_84\n      swap1\n      tag_85\n      jump\t// in\n    tag_84:\n      mload(0x40)\n      dup1\n      swap2\n      sub\n      swap1\n      revert\n    tag_83:\n      sub(shl(0xa0, 0x01), 0x01)\n        /* \"Contracts/CreoEvtolBlockchain.sol\":3389:3420  authorizedRegulators[regulator] */\n      and\n        /* \"Contracts/CreoEvtolBlockchain.sol\":3423:3428  false */\n      0x00\n        /* \"Contracts/CreoEvtolBlockchain.sol\":3389:3420  authorizedRegulators[regulator] */\n      swap1\n      dup2\n      mstore\n        /* \"Contracts/CreoEvtolBlockchain.sol\":3389:3409  authorizedRegulators */\n      0x01\n        /* \"Contracts/CreoEvtolBlockchain.sol\":3389:3420  authorizedRegulators[regulator] */\n      0x20\n      mstore\n      0x40\n      swap1\n      keccak256\n        /* \"Contracts/CreoEvtolBlockchain.sol\":3389:3428  authorizedRegulators[regulator] = false */\n      dup1\n      sload\n      not(0xff)\n      and\n      swap1\n      sstore\n        /* \"Contracts/CreoEvtolBlockchain.sol\":3310:3435  function revokeRegulatorAccess(address regulator) external onlyOwner {... */\n      jump\t// out\n        /* \"Contracts/CreoEvtolBlockchain.sol\":5577:6048  function verifyFlightPath(string memory evtolId, string memory flightData) external onlyRegulator {... */\n    tag_40:\n        /* \"Contracts/CreoEvtolBlockchain.sol\":2750:2760  msg.sender */\n      caller\n        /* \"Contracts/CreoEvtolBlockchain.sol\":2729:2761  authorizedRegulators[msg.sender] */\n      0x00\n      swap1\n      dup2\n      mstore\n        /* \"Contracts/CreoEvtolBlockchain.sol\":2729:2749  authorizedRegulators */\n      0x01\n        /* \"Contracts/CreoEvtolBlockchain.sol\":2729:2761  authorizedRegulators[msg.sender] */\n      0x20\n      mstore\n      0x40\n      swap1\n      keccak256\n      sload\n      0xff\n      and\n        /* \"Contracts/CreoEvtolBlockchain.sol\":2721:2797  require(authorizedRegulators[msg.sender], \"Sender not authorized regulator\") */\n      tag_88\n      jumpi\n      mload(0x40)\n      shl(0xe5, 0x461bcd)\n      dup2\n      mstore\n      0x04\n      add\n      tag_84\n      swap1\n      tag_90\n      jump\t// in\n    tag_88:\n        /* \"Contracts/CreoEvtolBlockchain.sol\":5685:5737  FlightPathVerification memory flightPathVerification */\n      tag_92\n      mload(0x40)\n      dup1\n      0x80\n      add\n      0x40\n      mstore\n      dup1\n      and(sub(shl(0xa0, 0x01), 0x01), 0x00)\n      dup2\n      mstore\n      0x20\n      add\n      0x60\n      dup2\n      mstore\n      0x20\n      add\n      0x60\n      dup2\n      mstore\n      0x20\n      add\n      0x00\n      dup2\n      mstore\n      pop\n      swap1\n      jump\n    tag_92:\n        /* \"Contracts/CreoEvtolBlockchain.sol\":5781:5791  msg.sender */\n      caller\n        /* \"Contracts/CreoEvtolBlockchain.sol\":5747:5791  flightPathVerification.verifier = msg.sender */\n      dup1\n      dup3\n      mstore\n        /* \"Contracts/CreoEvtolBlockchain.sol\":5801:5831  flightPathVerification.evtolId */\n      0x20\n      dup3\n      add\n        /* \"Contracts/CreoEvtolBlockchain.sol\":5801:5841  flightPathVerification.evtolId = evtolId */\n      dup5\n      swap1\n      mstore\n        /* \"Contracts/CreoEvtolBlockchain.sol\":5851:5884  flightPathVerification.flightData */\n      0x40\n      dup1\n      dup4\n      add\n        /* \"Contracts/CreoEvtolBlockchain.sol\":5851:5897  flightPathVerification.flightData = flightData */\n      dup5\n      swap1\n      mstore\n        /* \"Contracts/CreoEvtolBlockchain.sol\":5942:5957  block.timestamp */\n      timestamp\n        /* \"Contracts/CreoEvtolBlockchain.sol\":5907:5939  flightPathVerification.timestamp */\n      0x60\n      dup5\n      add\n        /* \"Contracts/CreoEvtolBlockchain.sol\":5907:5957  flightPathVerification.timestamp = block.timestamp */\n      dup2\n      swap1\n      mstore\n        /* \"Contracts/CreoEvtolBlockchain.sol\":5973:6041  FlightPathVerified(msg.sender, evtolId, flightData, block.timestamp) */\n      swap1\n      mload\n      0x5a86f65e7a2108615efadb90946fe9244f0b0c57b19cab313dd3e150d0c9825d\n      swap2\n      tag_74\n      swap2\n        /* \"Contracts/CreoEvtolBlockchain.sol\":5834:5841  evtolId */\n      dup8\n      swap2\n        /* \"Contracts/CreoEvtolBlockchain.sol\":5887:5897  flightData */\n      dup8\n      swap2\n        /* \"Contracts/CreoEvtolBlockchain.sol\":5973:6041  FlightPathVerified(msg.sender, evtolId, flightData, block.timestamp) */\n      tag_95\n      jump\t// in\n        /* \"Contracts/CreoEvtolBlockchain.sol\":5021:5382  function performMaintenanceCheck(string memory evtolId) external onlyRegulator {... */\n    tag_48:\n        /* \"Contracts/CreoEvtolBlockchain.sol\":2750:2760  msg.sender */\n      caller\n        /* \"Contracts/CreoEvtolBlockchain.sol\":2729:2761  authorizedRegulators[msg.sender] */\n      0x00\n      swap1\n      dup2\n      mstore\n        /* \"Contracts/CreoEvtolBlockchain.sol\":2729:2749  authorizedRegulators */\n      0x01\n        /* \"Contracts/CreoEvtolBlockchain.sol\":2729:2761  authorizedRegulators[msg.sender] */\n      0x20\n      mstore\n      0x40\n      swap1\n      keccak256\n      sload\n      0xff\n      and\n        /* \"Contracts/CreoEvtolBlockchain.sol\":2721:2797  require(authorizedRegulators[msg.sender], \"Sender not authorized regulator\") */\n      tag_97\n      jumpi\n      mload(0x40)\n      shl(0xe5, 0x461bcd)\n      dup2\n      mstore\n      0x04\n      add\n      tag_84\n      swap1\n      tag_90\n      jump\t// in\n    tag_97:\n        /* \"Contracts/CreoEvtolBlockchain.sol\":5110:5150  MaintenanceCheck memory maintenanceCheck */\n      tag_100\n      mload(0x40)\n      dup1\n      0x60\n      add\n      0x40\n      mstore\n      dup1\n      and(sub(shl(0xa0, 0x01), 0x01), 0x00)\n      dup2\n      mstore\n      0x20\n      add\n      0x60\n      dup2\n      mstore\n      0x20\n      add\n      0x00\n      dup2\n      mstore\n      pop\n      swap1\n      jump\n    tag_100:\n        /* \"Contracts/CreoEvtolBlockchain.sol\":5188:5198  msg.sender */\n      caller\n        /* \"Contracts/CreoEvtolBlockchain.sol\":5160:5198  maintenanceCheck.operator = msg.sender */\n      dup1\n      dup3\n      mstore\n        /* \"Contracts/CreoEvtolBlockchain.sol\":5208:5232  maintenanceCheck.evtolId */\n      0x20\n      dup3\n      add\n        /* \"Contracts/CreoEvtolBlockchain.sol\":5208:5242  maintenanceCheck.evtolId = evtolId */\n      dup4\n      swap1\n      mstore\n        /* \"Contracts/CreoEvtolBlockchain.sol\":5281:5296  block.timestamp */\n      timestamp\n        /* \"Contracts/CreoEvtolBlockchain.sol\":5252:5278  maintenanceCheck.timestamp */\n      0x40\n      dup1\n      dup5\n      add\n        /* \"Contracts/CreoEvtolBlockchain.sol\":5252:5296  maintenanceCheck.timestamp = block.timestamp */\n      dup3\n      swap1\n      mstore\n        /* \"Contracts/CreoEvtolBlockchain.sol\":5312:5375  MaintenanceCheckPerformed(msg.sender, evtolId, block.timestamp) */\n      mload\n      0x0dae1e228bfeda5aaa63f0880d00ca88c2232bf2bbbb03ee51643a359619a683\n      swap2\n      tag_102\n      swap2\n        /* \"Contracts/CreoEvtolBlockchain.sol\":5235:5242  evtolId */\n      dup7\n      swap2\n        /* \"Contracts/CreoEvtolBlockchain.sol\":5281:5296  block.timestamp */\n      swap1\n        /* \"Contracts/CreoEvtolBlockchain.sol\":5312:5375  MaintenanceCheckPerformed(msg.sender, evtolId, block.timestamp) */\n      tag_103\n      jump\t// in\n    tag_102:\n      mload(0x40)\n      dup1\n      swap2\n      sub\n      swap1\n      log2\n        /* \"Contracts/CreoEvtolBlockchain.sol\":5100:5382  {... */\n      pop\n        /* \"Contracts/CreoEvtolBlockchain.sol\":5021:5382  function performMaintenanceCheck(string memory evtolId) external onlyRegulator {... */\n      pop\n      jump\t// out\n        /* \"Contracts/CreoEvtolBlockchain.sol\":6576:6709  function upgradeContract(address newContract) external onlyOwner {... */\n    tag_51:\n        /* \"Contracts/CreoEvtolBlockchain.sol\":2528:2533  owner */\n      and(sub(shl(0xa0, 0x01), 0x01), sload(0x04))\n        /* \"Contracts/CreoEvtolBlockchain.sol\":2514:2524  msg.sender */\n      caller\n        /* \"Contracts/CreoEvtolBlockchain.sol\":2514:2533  msg.sender == owner */\n      eq\n        /* \"Contracts/CreoEvtolBlockchain.sol\":2506:2581  require(msg.sender == owner, \"Only contract owner can perform this action\") */\n      tag_105\n      jumpi\n      mload(0x40)\n      shl(0xe5, 0x461bcd)\n      dup2\n      mstore\n      0x04\n      add\n      tag_84\n      swap1\n      tag_85\n      jump\t// in\n    tag_105:\n        /* \"Contracts/CreoEvtolBlockchain.sol\":6673:6684  newContract */\n      dup1\n      sub(shl(0xa0, 0x01), 0x01)\n        /* \"Contracts/CreoEvtolBlockchain.sol\":6656:6702  ContractUpgraded(newContract, block.timestamp) */\n      and\n      0x36ad2521ebac3d572eeb7e618d4f6d0a8e1e6180634926360341d6beb52bf9d8\n        /* \"Contracts/CreoEvtolBlockchain.sol\":6686:6701  block.timestamp */\n      timestamp\n        /* \"Contracts/CreoEvtolBlockchain.sol\":6656:6702  ContractUpgraded(newContract, block.timestamp) */\n      mload(0x40)\n      tag_108\n      swap2\n        /* \"#utility.yul\":8728:8753   */\n      dup2\n      mstore\n        /* \"#utility.yul\":8716:8718   */\n      0x20\n        /* \"#utility.yul\":8701:8719   */\n      add\n      swap1\n        /* \"#utility.yul\":8582:8759   */\n      jump\n        /* \"Contracts/CreoEvtolBlockchain.sol\":6656:6702  ContractUpgraded(newContract, block.timestamp) */\n    tag_108:\n      mload(0x40)\n      dup1\n      swap2\n      sub\n      swap1\n      log2\n        /* \"Contracts/CreoEvtolBlockchain.sol\":6576:6709  function upgradeContract(address newContract) external onlyOwner {... */\n      pop\n      jump\t// out\n        /* \"Contracts/CreoEvtolBlockchain.sol\":3051:3174  function grantRegulatorAccess(address regulator) external onlyOwner {... */\n    tag_54:\n        /* \"Contracts/CreoEvtolBlockchain.sol\":2528:2533  owner */\n      and(sub(shl(0xa0, 0x01), 0x01), sload(0x04))\n        /* \"Contracts/CreoEvtolBlockchain.sol\":2514:2524  msg.sender */\n      caller\n        /* \"Contracts/CreoEvtolBlockchain.sol\":2514:2533  msg.sender == owner */\n      eq\n        /* \"Contracts/CreoEvtolBlockchain.sol\":2506:2581  require(msg.sender == owner, \"Only contract owner can perform this action\") */\n      tag_111\n      jumpi\n      mload(0x40)\n      shl(0xe5, 0x461bcd)\n      dup2\n      mstore\n      0x04\n      add\n      tag_84\n      swap1\n      tag_85\n      jump\t// in\n    tag_111:\n      sub(shl(0xa0, 0x01), 0x01)\n        /* \"Contracts/CreoEvtolBlockchain.sol\":3129:3160  authorizedRegulators[regulator] */\n      and\n      0x00\n      swap1\n      dup2\n      mstore\n        /* \"Contracts/CreoEvtolBlockchain.sol\":3163:3167  true */\n      0x01\n        /* \"Contracts/CreoEvtolBlockchain.sol\":3129:3160  authorizedRegulators[regulator] */\n      0x20\n      dup2\n      swap1\n      mstore\n      0x40\n      swap1\n      swap2\n      keccak256\n        /* \"Contracts/CreoEvtolBlockchain.sol\":3129:3167  authorizedRegulators[regulator] = true */\n      dup1\n      sload\n      not(0xff)\n      and\n      swap1\n      swap2\n      or\n      swap1\n      sstore\n        /* \"Contracts/CreoEvtolBlockchain.sol\":3051:3174  function grantRegulatorAccess(address regulator) external onlyOwner {... */\n      jump\t// out\n        /* \"Contracts/CreoEvtolBlockchain.sol\":6233:6445  function storeCrashReport(bytes32 reportHash, bytes calldata reportData) external onlyRegulator {... */\n    tag_58:\n        /* \"Contracts/CreoEvtolBlockchain.sol\":2750:2760  msg.sender */\n      caller\n        /* \"Contracts/CreoEvtolBlockchain.sol\":2729:2761  authorizedRegulators[msg.sender] */\n      0x00\n      swap1\n      dup2\n      mstore\n        /* \"Contracts/CreoEvtolBlockchain.sol\":2729:2749  authorizedRegulators */\n      0x01\n        /* \"Contracts/CreoEvtolBlockchain.sol\":2729:2761  authorizedRegulators[msg.sender] */\n      0x20\n      mstore\n      0x40\n      swap1\n      keccak256\n      sload\n      0xff\n      and\n        /* \"Contracts/CreoEvtolBlockchain.sol\":2721:2797  require(authorizedRegulators[msg.sender], \"Sender not authorized regulator\") */\n      tag_115\n      jumpi\n      mload(0x40)\n      shl(0xe5, 0x461bcd)\n      dup2\n      mstore\n      0x04\n      add\n      tag_84\n      swap1\n      tag_90\n      jump\t// in\n    tag_115:\n        /* \"Contracts/CreoEvtolBlockchain.sol\":6339:6363  crashReports[reportHash] */\n      0x00\n      dup4\n      dup2\n      mstore\n        /* \"Contracts/CreoEvtolBlockchain.sol\":6339:6351  crashReports */\n      0x03\n        /* \"Contracts/CreoEvtolBlockchain.sol\":6339:6363  crashReports[reportHash] */\n      0x20\n      mstore\n      0x40\n      swap1\n      keccak256\n        /* \"Contracts/CreoEvtolBlockchain.sol\":6339:6376  crashReports[reportHash] = reportData */\n      tag_118\n        /* \"Contracts/CreoEvtolBlockchain.sol\":6366:6376  reportData */\n      dup3\n      dup5\n        /* \"Contracts/CreoEvtolBlockchain.sol\":6339:6363  crashReports[reportHash] */\n      dup4\n        /* \"Contracts/CreoEvtolBlockchain.sol\":6339:6376  crashReports[reportHash] = reportData */\n      tag_119\n      jump\t// in\n    tag_118:\n      pop\n        /* \"Contracts/CreoEvtolBlockchain.sol\":6410:6420  reportHash */\n      dup3\n        /* \"Contracts/CreoEvtolBlockchain.sol\":6392:6438  CrashReportStored(reportHash, block.timestamp) */\n      0xeea6881f152feb998f90468b0271136181104fb647215ca8b87dde9aa1bca087\n        /* \"Contracts/CreoEvtolBlockchain.sol\":6422:6437  block.timestamp */\n      timestamp\n        /* \"Contracts/CreoEvtolBlockchain.sol\":6392:6438  CrashReportStored(reportHash, block.timestamp) */\n      mload(0x40)\n      tag_74\n      swap2\n        /* \"#utility.yul\":8728:8753   */\n      dup2\n      mstore\n        /* \"#utility.yul\":8716:8718   */\n      0x20\n        /* \"#utility.yul\":8701:8719   */\n      add\n      swap1\n        /* \"#utility.yul\":8582:8759   */\n      jump\n        /* \"#utility.yul\":14:141   */\n    tag_121:\n        /* \"#utility.yul\":75:85   */\n      0x4e487b71\n        /* \"#utility.yul\":70:73   */\n      0xe0\n        /* \"#utility.yul\":66:86   */\n      shl\n        /* \"#utility.yul\":63:64   */\n      0x00\n        /* \"#utility.yul\":56:87   */\n      mstore\n        /* \"#utility.yul\":106:110   */\n      0x41\n        /* \"#utility.yul\":103:104   */\n      0x04\n        /* \"#utility.yul\":96:111   */\n      mstore\n        /* \"#utility.yul\":130:134   */\n      0x24\n        /* \"#utility.yul\":127:128   */\n      0x00\n        /* \"#utility.yul\":120:135   */\n      revert\n        /* \"#utility.yul\":146:865   */\n    tag_122:\n        /* \"#utility.yul\":189:194   */\n      0x00\n        /* \"#utility.yul\":242:245   */\n      dup3\n        /* \"#utility.yul\":235:239   */\n      0x1f\n        /* \"#utility.yul\":227:233   */\n      dup4\n        /* \"#utility.yul\":223:240   */\n      add\n        /* \"#utility.yul\":219:246   */\n      slt\n        /* \"#utility.yul\":209:264   */\n      tag_130\n      jumpi\n        /* \"#utility.yul\":260:261   */\n      0x00\n        /* \"#utility.yul\":257:258   */\n      dup1\n        /* \"#utility.yul\":250:262   */\n      revert\n        /* \"#utility.yul\":209:264   */\n    tag_130:\n        /* \"#utility.yul\":296:302   */\n      dup2\n        /* \"#utility.yul\":283:303   */\n      calldataload\n        /* \"#utility.yul\":322:340   */\n      0xffffffffffffffff\n        /* \"#utility.yul\":359:361   */\n      dup1\n        /* \"#utility.yul\":355:357   */\n      dup3\n        /* \"#utility.yul\":352:362   */\n      gt\n        /* \"#utility.yul\":349:385   */\n      iszero\n      tag_132\n      jumpi\n        /* \"#utility.yul\":365:383   */\n      tag_132\n      tag_121\n      jump\t// in\n    tag_132:\n        /* \"#utility.yul\":440:442   */\n      0x40\n        /* \"#utility.yul\":434:443   */\n      mload\n        /* \"#utility.yul\":408:410   */\n      0x1f\n        /* \"#utility.yul\":494:507   */\n      dup4\n      add\n      not(0x1f)\n        /* \"#utility.yul\":490:512   */\n      swap1\n      dup2\n      and\n        /* \"#utility.yul\":514:516   */\n      0x3f\n        /* \"#utility.yul\":486:517   */\n      add\n        /* \"#utility.yul\":482:522   */\n      and\n        /* \"#utility.yul\":470:523   */\n      dup2\n      add\n      swap1\n        /* \"#utility.yul\":538:556   */\n      dup3\n      dup3\n      gt\n        /* \"#utility.yul\":558:580   */\n      dup2\n      dup4\n      lt\n        /* \"#utility.yul\":535:581   */\n      or\n        /* \"#utility.yul\":532:604   */\n      iszero\n      tag_134\n      jumpi\n        /* \"#utility.yul\":584:602   */\n      tag_134\n      tag_121\n      jump\t// in\n    tag_134:\n        /* \"#utility.yul\":624:634   */\n      dup2\n        /* \"#utility.yul\":620:622   */\n      0x40\n        /* \"#utility.yul\":613:635   */\n      mstore\n        /* \"#utility.yul\":659:661   */\n      dup4\n        /* \"#utility.yul\":651:657   */\n      dup2\n        /* \"#utility.yul\":644:662   */\n      mstore\n        /* \"#utility.yul\":705:708   */\n      dup7\n        /* \"#utility.yul\":698:702   */\n      0x20\n        /* \"#utility.yul\":693:695   */\n      dup6\n        /* \"#utility.yul\":685:691   */\n      dup9\n        /* \"#utility.yul\":681:696   */\n      add\n        /* \"#utility.yul\":677:703   */\n      add\n        /* \"#utility.yul\":674:709   */\n      gt\n        /* \"#utility.yul\":671:726   */\n      iszero\n      tag_135\n      jumpi\n        /* \"#utility.yul\":722:723   */\n      0x00\n        /* \"#utility.yul\":719:720   */\n      dup1\n        /* \"#utility.yul\":712:724   */\n      revert\n        /* \"#utility.yul\":671:726   */\n    tag_135:\n        /* \"#utility.yul\":786:788   */\n      dup4\n        /* \"#utility.yul\":779:783   */\n      0x20\n        /* \"#utility.yul\":771:777   */\n      dup8\n        /* \"#utility.yul\":767:784   */\n      add\n        /* \"#utility.yul\":760:764   */\n      0x20\n        /* \"#utility.yul\":752:758   */\n      dup4\n        /* \"#utility.yul\":748:765   */\n      add\n        /* \"#utility.yul\":735:789   */\n      calldatacopy\n        /* \"#utility.yul\":833:834   */\n      0x00\n        /* \"#utility.yul\":826:830   */\n      0x20\n        /* \"#utility.yul\":821:823   */\n      dup6\n        /* \"#utility.yul\":813:819   */\n      dup4\n        /* \"#utility.yul\":809:824   */\n      add\n        /* \"#utility.yul\":805:831   */\n      add\n        /* \"#utility.yul\":798:835   */\n      mstore\n        /* \"#utility.yul\":853:859   */\n      dup1\n        /* \"#utility.yul\":844:859   */\n      swap5\n      pop\n      pop\n      pop\n      pop\n      pop\n        /* \"#utility.yul\":146:865   */\n      swap3\n      swap2\n      pop\n      pop\n      jump\t// out\n        /* \"#utility.yul\":870:1413   */\n    tag_17:\n        /* \"#utility.yul\":958:964   */\n      0x00\n        /* \"#utility.yul\":966:972   */\n      dup1\n        /* \"#utility.yul\":1019:1021   */\n      0x40\n        /* \"#utility.yul\":1007:1016   */\n      dup4\n        /* \"#utility.yul\":998:1005   */\n      dup6\n        /* \"#utility.yul\":994:1017   */\n      sub\n        /* \"#utility.yul\":990:1022   */\n      slt\n        /* \"#utility.yul\":987:1039   */\n      iszero\n      tag_137\n      jumpi\n        /* \"#utility.yul\":1035:1036   */\n      0x00\n        /* \"#utility.yul\":1032:1033   */\n      dup1\n        /* \"#utility.yul\":1025:1037   */\n      revert\n        /* \"#utility.yul\":987:1039   */\n    tag_137:\n        /* \"#utility.yul\":1075:1084   */\n      dup3\n        /* \"#utility.yul\":1062:1085   */\n      calldataload\n        /* \"#utility.yul\":1104:1122   */\n      0xffffffffffffffff\n        /* \"#utility.yul\":1145:1147   */\n      dup1\n        /* \"#utility.yul\":1137:1143   */\n      dup3\n        /* \"#utility.yul\":1134:1148   */\n      gt\n        /* \"#utility.yul\":1131:1165   */\n      iszero\n      tag_138\n      jumpi\n        /* \"#utility.yul\":1161:1162   */\n      0x00\n        /* \"#utility.yul\":1158:1159   */\n      dup1\n        /* \"#utility.yul\":1151:1163   */\n      revert\n        /* \"#utility.yul\":1131:1165   */\n    tag_138:\n        /* \"#utility.yul\":1184:1234   */\n      tag_139\n        /* \"#utility.yul\":1226:1233   */\n      dup7\n        /* \"#utility.yul\":1217:1223   */\n      dup4\n        /* \"#utility.yul\":1206:1215   */\n      dup8\n        /* \"#utility.yul\":1202:1224   */\n      add\n        /* \"#utility.yul\":1184:1234   */\n      tag_122\n      jump\t// in\n    tag_139:\n        /* \"#utility.yul\":1174:1234   */\n      swap4\n      pop\n        /* \"#utility.yul\":1287:1289   */\n      0x20\n        /* \"#utility.yul\":1276:1285   */\n      dup6\n        /* \"#utility.yul\":1272:1290   */\n      add\n        /* \"#utility.yul\":1259:1291   */\n      calldataload\n        /* \"#utility.yul\":1243:1291   */\n      swap2\n      pop\n        /* \"#utility.yul\":1316:1318   */\n      dup1\n        /* \"#utility.yul\":1306:1314   */\n      dup3\n        /* \"#utility.yul\":1303:1319   */\n      gt\n        /* \"#utility.yul\":1300:1336   */\n      iszero\n      tag_140\n      jumpi\n        /* \"#utility.yul\":1332:1333   */\n      0x00\n        /* \"#utility.yul\":1329:1330   */\n      dup1\n        /* \"#utility.yul\":1322:1334   */\n      revert\n        /* \"#utility.yul\":1300:1336   */\n    tag_140:\n      pop\n        /* \"#utility.yul\":1355:1407   */\n      tag_141\n        /* \"#utility.yul\":1399:1406   */\n      dup6\n        /* \"#utility.yul\":1388:1396   */\n      dup3\n        /* \"#utility.yul\":1377:1386   */\n      dup7\n        /* \"#utility.yul\":1373:1397   */\n      add\n        /* \"#utility.yul\":1355:1407   */\n      tag_122\n      jump\t// in\n    tag_141:\n        /* \"#utility.yul\":1345:1407   */\n      swap2\n      pop\n      pop\n        /* \"#utility.yul\":870:1413   */\n      swap3\n      pop\n      swap3\n      swap1\n      pop\n      jump\t// out\n        /* \"#utility.yul\":1418:1707   */\n    tag_123:\n        /* \"#utility.yul\":1460:1463   */\n      0x00\n        /* \"#utility.yul\":1498:1503   */\n      dup2\n        /* \"#utility.yul\":1492:1504   */\n      mload\n        /* \"#utility.yul\":1525:1531   */\n      dup1\n        /* \"#utility.yul\":1520:1523   */\n      dup5\n        /* \"#utility.yul\":1513:1532   */\n      mstore\n        /* \"#utility.yul\":1581:1587   */\n      dup1\n        /* \"#utility.yul\":1574:1578   */\n      0x20\n        /* \"#utility.yul\":1567:1572   */\n      dup5\n        /* \"#utility.yul\":1563:1579   */\n      add\n        /* \"#utility.yul\":1556:1560   */\n      0x20\n        /* \"#utility.yul\":1551:1554   */\n      dup7\n        /* \"#utility.yul\":1547:1561   */\n      add\n        /* \"#utility.yul\":1541:1588   */\n      mcopy\n        /* \"#utility.yul\":1633:1634   */\n      0x00\n        /* \"#utility.yul\":1626:1630   */\n      0x20\n        /* \"#utility.yul\":1617:1623   */\n      dup3\n        /* \"#utility.yul\":1612:1615   */\n      dup7\n        /* \"#utility.yul\":1608:1624   */\n      add\n        /* \"#utility.yul\":1604:1631   */\n      add\n        /* \"#utility.yul\":1597:1635   */\n      mstore\n        /* \"#utility.yul\":1696:1700   */\n      0x20\n        /* \"#utility.yul\":1689:1691   */\n      0x1f\n        /* \"#utility.yul\":1685:1692   */\n      not\n        /* \"#utility.yul\":1680:1682   */\n      0x1f\n        /* \"#utility.yul\":1672:1678   */\n      dup4\n        /* \"#utility.yul\":1668:1683   */\n      add\n        /* \"#utility.yul\":1664:1693   */\n      and\n        /* \"#utility.yul\":1659:1662   */\n      dup6\n        /* \"#utility.yul\":1655:1694   */\n      add\n        /* \"#utility.yul\":1651:1701   */\n      add\n        /* \"#utility.yul\":1644:1701   */\n      swap2\n      pop\n      pop\n        /* \"#utility.yul\":1418:1707   */\n      swap3\n      swap2\n      pop\n      pop\n      jump\t// out\n        /* \"#utility.yul\":1712:1932   */\n    tag_20:\n        /* \"#utility.yul\":1861:1863   */\n      0x20\n        /* \"#utility.yul\":1850:1859   */\n      dup2\n        /* \"#utility.yul\":1843:1864   */\n      mstore\n        /* \"#utility.yul\":1824:1828   */\n      0x00\n        /* \"#utility.yul\":1881:1926   */\n      tag_144\n        /* \"#utility.yul\":1922:1924   */\n      0x20\n        /* \"#utility.yul\":1911:1920   */\n      dup4\n        /* \"#utility.yul\":1907:1925   */\n      add\n        /* \"#utility.yul\":1899:1905   */\n      dup5\n        /* \"#utility.yul\":1881:1926   */\n      tag_123\n      jump\t// in\n    tag_144:\n        /* \"#utility.yul\":1873:1926   */\n      swap4\n        /* \"#utility.yul\":1712:1932   */\n      swap3\n      pop\n      pop\n      pop\n      jump\t// out\n        /* \"#utility.yul\":1937:2117   */\n    tag_26:\n        /* \"#utility.yul\":1996:2002   */\n      0x00\n        /* \"#utility.yul\":2049:2051   */\n      0x20\n        /* \"#utility.yul\":2037:2046   */\n      dup3\n        /* \"#utility.yul\":2028:2035   */\n      dup5\n        /* \"#utility.yul\":2024:2047   */\n      sub\n        /* \"#utility.yul\":2020:2052   */\n      slt\n        /* \"#utility.yul\":2017:2069   */\n      iszero\n      tag_146\n      jumpi\n        /* \"#utility.yul\":2065:2066   */\n      0x00\n        /* \"#utility.yul\":2062:2063   */\n      dup1\n        /* \"#utility.yul\":2055:2067   */\n      revert\n        /* \"#utility.yul\":2017:2069   */\n    tag_146:\n      pop\n        /* \"#utility.yul\":2088:2111   */\n      calldataload\n      swap2\n        /* \"#utility.yul\":1937:2117   */\n      swap1\n      pop\n      jump\t// out\n        /* \"#utility.yul\":2122:2408   */\n    tag_31:\n        /* \"#utility.yul\":2181:2187   */\n      0x00\n        /* \"#utility.yul\":2234:2236   */\n      0x20\n        /* \"#utility.yul\":2222:2231   */\n      dup3\n        /* \"#utility.yul\":2213:2220   */\n      dup5\n        /* \"#utility.yul\":2209:2232   */\n      sub\n        /* \"#utility.yul\":2205:2237   */\n      slt\n        /* \"#utility.yul\":2202:2254   */\n      iszero\n      tag_148\n      jumpi\n        /* \"#utility.yul\":2250:2251   */\n      0x00\n        /* \"#utility.yul\":2247:2248   */\n      dup1\n        /* \"#utility.yul\":2240:2252   */\n      revert\n        /* \"#utility.yul\":2202:2254   */\n    tag_148:\n        /* \"#utility.yul\":2276:2299   */\n      dup2\n      calldataload\n      sub(shl(0xa0, 0x01), 0x01)\n        /* \"#utility.yul\":2328:2359   */\n      dup2\n      and\n        /* \"#utility.yul\":2318:2360   */\n      dup2\n      eq\n        /* \"#utility.yul\":2308:2378   */\n      tag_144\n      jumpi\n        /* \"#utility.yul\":2374:2375   */\n      0x00\n        /* \"#utility.yul\":2371:2372   */\n      dup1\n        /* \"#utility.yul\":2364:2376   */\n      revert\n        /* \"#utility.yul\":2813:3135   */\n    tag_47:\n        /* \"#utility.yul\":2882:2888   */\n      0x00\n        /* \"#utility.yul\":2935:2937   */\n      0x20\n        /* \"#utility.yul\":2923:2932   */\n      dup3\n        /* \"#utility.yul\":2914:2921   */\n      dup5\n        /* \"#utility.yul\":2910:2933   */\n      sub\n        /* \"#utility.yul\":2906:2938   */\n      slt\n        /* \"#utility.yul\":2903:2955   */\n      iszero\n      tag_153\n      jumpi\n        /* \"#utility.yul\":2951:2952   */\n      0x00\n        /* \"#utility.yul\":2948:2949   */\n      dup1\n        /* \"#utility.yul\":2941:2953   */\n      revert\n        /* \"#utility.yul\":2903:2955   */\n    tag_153:\n        /* \"#utility.yul\":2991:3000   */\n      dup2\n        /* \"#utility.yul\":2978:3001   */\n      calldataload\n        /* \"#utility.yul\":3024:3042   */\n      0xffffffffffffffff\n        /* \"#utility.yul\":3016:3022   */\n      dup2\n        /* \"#utility.yul\":3013:3043   */\n      gt\n        /* \"#utility.yul\":3010:3060   */\n      iszero\n      tag_154\n      jumpi\n        /* \"#utility.yul\":3056:3057   */\n      0x00\n        /* \"#utility.yul\":3053:3054   */\n      dup1\n        /* \"#utility.yul\":3046:3058   */\n      revert\n        /* \"#utility.yul\":3010:3060   */\n    tag_154:\n        /* \"#utility.yul\":3079:3129   */\n      tag_155\n        /* \"#utility.yul\":3121:3128   */\n      dup5\n        /* \"#utility.yul\":3112:3118   */\n      dup3\n        /* \"#utility.yul\":3101:3110   */\n      dup6\n        /* \"#utility.yul\":3097:3119   */\n      add\n        /* \"#utility.yul\":3079:3129   */\n      tag_122\n      jump\t// in\n    tag_155:\n        /* \"#utility.yul\":3069:3129   */\n      swap5\n        /* \"#utility.yul\":2813:3135   */\n      swap4\n      pop\n      pop\n      pop\n      pop\n      jump\t// out\n        /* \"#utility.yul\":3140:3799   */\n    tag_57:\n        /* \"#utility.yul\":3219:3225   */\n      0x00\n        /* \"#utility.yul\":3227:3233   */\n      dup1\n        /* \"#utility.yul\":3235:3241   */\n      0x00\n        /* \"#utility.yul\":3288:3290   */\n      0x40\n        /* \"#utility.yul\":3276:3285   */\n      dup5\n        /* \"#utility.yul\":3267:3274   */\n      dup7\n        /* \"#utility.yul\":3263:3286   */\n      sub\n        /* \"#utility.yul\":3259:3291   */\n      slt\n        /* \"#utility.yul\":3256:3308   */\n      iszero\n      tag_157\n      jumpi\n        /* \"#utility.yul\":3304:3305   */\n      0x00\n        /* \"#utility.yul\":3301:3302   */\n      dup1\n        /* \"#utility.yul\":3294:3306   */\n      revert\n        /* \"#utility.yul\":3256:3308   */\n    tag_157:\n        /* \"#utility.yul\":3340:3349   */\n      dup4\n        /* \"#utility.yul\":3327:3350   */\n      calldataload\n        /* \"#utility.yul\":3317:3350   */\n      swap3\n      pop\n        /* \"#utility.yul\":3401:3403   */\n      0x20\n        /* \"#utility.yul\":3390:3399   */\n      dup5\n        /* \"#utility.yul\":3386:3404   */\n      add\n        /* \"#utility.yul\":3373:3405   */\n      calldataload\n        /* \"#utility.yul\":3424:3442   */\n      0xffffffffffffffff\n        /* \"#utility.yul\":3465:3467   */\n      dup1\n        /* \"#utility.yul\":3457:3463   */\n      dup3\n        /* \"#utility.yul\":3454:3468   */\n      gt\n        /* \"#utility.yul\":3451:3485   */\n      iszero\n      tag_158\n      jumpi\n        /* \"#utility.yul\":3481:3482   */\n      0x00\n        /* \"#utility.yul\":3478:3479   */\n      dup1\n        /* \"#utility.yul\":3471:3483   */\n      revert\n        /* \"#utility.yul\":3451:3485   */\n    tag_158:\n        /* \"#utility.yul\":3519:3525   */\n      dup2\n        /* \"#utility.yul\":3508:3517   */\n      dup7\n        /* \"#utility.yul\":3504:3526   */\n      add\n        /* \"#utility.yul\":3494:3526   */\n      swap2\n      pop\n        /* \"#utility.yul\":3564:3571   */\n      dup7\n        /* \"#utility.yul\":3557:3561   */\n      0x1f\n        /* \"#utility.yul\":3553:3555   */\n      dup4\n        /* \"#utility.yul\":3549:3562   */\n      add\n        /* \"#utility.yul\":3545:3572   */\n      slt\n        /* \"#utility.yul\":3535:3590   */\n      tag_159\n      jumpi\n        /* \"#utility.yul\":3586:3587   */\n      0x00\n        /* \"#utility.yul\":3583:3584   */\n      dup1\n        /* \"#utility.yul\":3576:3588   */\n      revert\n        /* \"#utility.yul\":3535:3590   */\n    tag_159:\n        /* \"#utility.yul\":3626:3628   */\n      dup2\n        /* \"#utility.yul\":3613:3629   */\n      calldataload\n        /* \"#utility.yul\":3652:3654   */\n      dup2\n        /* \"#utility.yul\":3644:3650   */\n      dup2\n        /* \"#utility.yul\":3641:3655   */\n      gt\n        /* \"#utility.yul\":3638:3672   */\n      iszero\n      tag_160\n      jumpi\n        /* \"#utility.yul\":3668:3669   */\n      0x00\n        /* \"#utility.yul\":3665:3666   */\n      dup1\n        /* \"#utility.yul\":3658:3670   */\n      revert\n        /* \"#utility.yul\":3638:3672   */\n    tag_160:\n        /* \"#utility.yul\":3713:3720   */\n      dup8\n        /* \"#utility.yul\":3708:3710   */\n      0x20\n        /* \"#utility.yul\":3699:3705   */\n      dup3\n        /* \"#utility.yul\":3695:3697   */\n      dup6\n        /* \"#utility.yul\":3691:3706   */\n      add\n        /* \"#utility.yul\":3687:3711   */\n      add\n        /* \"#utility.yul\":3684:3721   */\n      gt\n        /* \"#utility.yul\":3681:3738   */\n      iszero\n      tag_161\n      jumpi\n        /* \"#utility.yul\":3734:3735   */\n      0x00\n        /* \"#utility.yul\":3731:3732   */\n      dup1\n        /* \"#utility.yul\":3724:3736   */\n      revert\n        /* \"#utility.yul\":3681:3738   */\n    tag_161:\n        /* \"#utility.yul\":3765:3767   */\n      0x20\n        /* \"#utility.yul\":3761:3763   */\n      dup4\n        /* \"#utility.yul\":3757:3768   */\n      add\n        /* \"#utility.yul\":3747:3768   */\n      swap5\n      pop\n        /* \"#utility.yul\":3787:3793   */\n      dup1\n        /* \"#utility.yul\":3777:3793   */\n      swap4\n      pop\n      pop\n      pop\n      pop\n        /* \"#utility.yul\":3140:3799   */\n      swap3\n      pop\n      swap3\n      pop\n      swap3\n      jump\t// out\n        /* \"#utility.yul\":3804:4107   */\n    tag_61:\n        /* \"#utility.yul\":3935:3938   */\n      0x00\n        /* \"#utility.yul\":3973:3979   */\n      dup3\n        /* \"#utility.yul\":3967:3980   */\n      mload\n        /* \"#utility.yul\":4019:4025   */\n      dup1\n        /* \"#utility.yul\":4012:4016   */\n      0x20\n        /* \"#utility.yul\":4004:4010   */\n      dup6\n        /* \"#utility.yul\":4000:4017   */\n      add\n        /* \"#utility.yul\":3995:3998   */\n      dup5\n        /* \"#utility.yul\":3989:4026   */\n      mcopy\n        /* \"#utility.yul\":4081:4082   */\n      0x00\n        /* \"#utility.yul\":4045:4061   */\n      swap3\n      add\n        /* \"#utility.yul\":4070:4083   */\n      swap2\n      dup3\n      mstore\n      pop\n        /* \"#utility.yul\":4045:4061   */\n      swap2\n        /* \"#utility.yul\":3804:4107   */\n      swap1\n      pop\n      jump\t// out\n        /* \"#utility.yul\":4112:4492   */\n    tag_63:\n        /* \"#utility.yul\":4191:4192   */\n      0x01\n        /* \"#utility.yul\":4187:4199   */\n      dup2\n      dup2\n      shr\n      swap1\n        /* \"#utility.yul\":4234:4246   */\n      dup3\n      and\n      dup1\n        /* \"#utility.yul\":4255:4316   */\n      tag_164\n      jumpi\n        /* \"#utility.yul\":4309:4313   */\n      0x7f\n        /* \"#utility.yul\":4301:4307   */\n      dup3\n        /* \"#utility.yul\":4297:4314   */\n      and\n        /* \"#utility.yul\":4287:4314   */\n      swap2\n      pop\n        /* \"#utility.yul\":4255:4316   */\n    tag_164:\n        /* \"#utility.yul\":4362:4364   */\n      0x20\n        /* \"#utility.yul\":4354:4360   */\n      dup3\n        /* \"#utility.yul\":4351:4365   */\n      lt\n        /* \"#utility.yul\":4331:4349   */\n      dup2\n        /* \"#utility.yul\":4328:4366   */\n      sub\n        /* \"#utility.yul\":4325:4486   */\n      tag_165\n      jumpi\n        /* \"#utility.yul\":4408:4418   */\n      0x4e487b71\n        /* \"#utility.yul\":4403:4406   */\n      0xe0\n        /* \"#utility.yul\":4399:4419   */\n      shl\n        /* \"#utility.yul\":4396:4397   */\n      0x00\n        /* \"#utility.yul\":4389:4420   */\n      mstore\n        /* \"#utility.yul\":4443:4447   */\n      0x22\n        /* \"#utility.yul\":4440:4441   */\n      0x04\n        /* \"#utility.yul\":4433:4448   */\n      mstore\n        /* \"#utility.yul\":4471:4475   */\n      0x24\n        /* \"#utility.yul\":4468:4469   */\n      0x00\n        /* \"#utility.yul\":4461:4476   */\n      revert\n        /* \"#utility.yul\":4325:4486   */\n    tag_165:\n      pop\n        /* \"#utility.yul\":4112:4492   */\n      swap2\n      swap1\n      pop\n      jump\t// out\n        /* \"#utility.yul\":4623:5141   */\n    tag_125:\n        /* \"#utility.yul\":4725:4727   */\n      0x1f\n        /* \"#utility.yul\":4720:4723   */\n      dup3\n        /* \"#utility.yul\":4717:4728   */\n      gt\n        /* \"#utility.yul\":4714:5135   */\n      iszero\n      tag_168\n      jumpi\n        /* \"#utility.yul\":4761:4766   */\n      dup1\n        /* \"#utility.yul\":4758:4759   */\n      0x00\n        /* \"#utility.yul\":4751:4767   */\n      mstore\n        /* \"#utility.yul\":4805:4809   */\n      0x20\n        /* \"#utility.yul\":4802:4803   */\n      0x00\n        /* \"#utility.yul\":4792:4810   */\n      keccak256\n        /* \"#utility.yul\":4875:4877   */\n      0x1f\n        /* \"#utility.yul\":4863:4873   */\n      dup5\n        /* \"#utility.yul\":4859:4878   */\n      add\n        /* \"#utility.yul\":4856:4857   */\n      0x05\n        /* \"#utility.yul\":4852:4879   */\n      shr\n        /* \"#utility.yul\":4846:4850   */\n      dup2\n        /* \"#utility.yul\":4842:4880   */\n      add\n        /* \"#utility.yul\":4911:4915   */\n      0x20\n        /* \"#utility.yul\":4899:4909   */\n      dup6\n        /* \"#utility.yul\":4896:4916   */\n      lt\n        /* \"#utility.yul\":4893:4940   */\n      iszero\n      tag_169\n      jumpi\n      pop\n        /* \"#utility.yul\":4934:4938   */\n      dup1\n        /* \"#utility.yul\":4893:4940   */\n    tag_169:\n        /* \"#utility.yul\":4989:4991   */\n      0x1f\n        /* \"#utility.yul\":4984:4987   */\n      dup5\n        /* \"#utility.yul\":4980:4992   */\n      add\n        /* \"#utility.yul\":4977:4978   */\n      0x05\n        /* \"#utility.yul\":4973:4993   */\n      shr\n        /* \"#utility.yul\":4967:4971   */\n      dup3\n        /* \"#utility.yul\":4963:4994   */\n      add\n        /* \"#utility.yul\":4953:4994   */\n      swap2\n      pop\n        /* \"#utility.yul\":5044:5125   */\n    tag_170:\n        /* \"#utility.yul\":5062:5064   */\n      dup2\n        /* \"#utility.yul\":5055:5060   */\n      dup2\n        /* \"#utility.yul\":5052:5065   */\n      lt\n        /* \"#utility.yul\":5044:5125   */\n      iszero\n      tag_172\n      jumpi\n        /* \"#utility.yul\":5121:5122   */\n      0x00\n        /* \"#utility.yul\":5107:5123   */\n      dup2\n      sstore\n        /* \"#utility.yul\":5088:5089   */\n      0x01\n        /* \"#utility.yul\":5077:5090   */\n      add\n        /* \"#utility.yul\":5044:5125   */\n      jump(tag_170)\n    tag_172:\n        /* \"#utility.yul\":5048:5051   */\n      pop\n      pop\n        /* \"#utility.yul\":4714:5135   */\n    tag_168:\n        /* \"#utility.yul\":4623:5141   */\n      pop\n      pop\n      pop\n      jump\t// out\n        /* \"#utility.yul\":5317:6662   */\n    tag_73:\n        /* \"#utility.yul\":5443:5446   */\n      dup2\n        /* \"#utility.yul\":5437:5447   */\n      mload\n        /* \"#utility.yul\":5470:5488   */\n      0xffffffffffffffff\n        /* \"#utility.yul\":5462:5468   */\n      dup2\n        /* \"#utility.yul\":5459:5489   */\n      gt\n        /* \"#utility.yul\":5456:5512   */\n      iszero\n      tag_176\n      jumpi\n        /* \"#utility.yul\":5492:5510   */\n      tag_176\n      tag_121\n      jump\t// in\n    tag_176:\n        /* \"#utility.yul\":5521:5618   */\n      tag_177\n        /* \"#utility.yul\":5611:5617   */\n      dup2\n        /* \"#utility.yul\":5571:5609   */\n      tag_178\n        /* \"#utility.yul\":5603:5607   */\n      dup5\n        /* \"#utility.yul\":5597:5608   */\n      sload\n        /* \"#utility.yul\":5571:5609   */\n      tag_63\n      jump\t// in\n    tag_178:\n        /* \"#utility.yul\":5565:5569   */\n      dup5\n        /* \"#utility.yul\":5521:5618   */\n      tag_125\n      jump\t// in\n    tag_177:\n        /* \"#utility.yul\":5673:5677   */\n      0x20\n      dup1\n        /* \"#utility.yul\":5730:5732   */\n      0x1f\n        /* \"#utility.yul\":5719:5733   */\n      dup4\n      gt\n        /* \"#utility.yul\":5747:5748   */\n      0x01\n        /* \"#utility.yul\":5742:6405   */\n      dup2\n      eq\n      tag_180\n      jumpi\n        /* \"#utility.yul\":6449:6450   */\n      0x00\n        /* \"#utility.yul\":6466:6472   */\n      dup5\n        /* \"#utility.yul\":6463:6552   */\n      iszero\n      tag_181\n      jumpi\n      pop\n        /* \"#utility.yul\":6518:6537   */\n      dup6\n      dup4\n      add\n        /* \"#utility.yul\":6512:6538   */\n      mload\n        /* \"#utility.yul\":6463:6552   */\n    tag_181:\n      not(0x00)\n        /* \"#utility.yul\":5274:5275   */\n      0x03\n        /* \"#utility.yul\":5270:5281   */\n      dup7\n      swap1\n      shl\n        /* \"#utility.yul\":5266:5290   */\n      shr\n        /* \"#utility.yul\":5262:5291   */\n      not\n        /* \"#utility.yul\":5252:5292   */\n      and\n        /* \"#utility.yul\":5298:5299   */\n      0x01\n        /* \"#utility.yul\":5294:5305   */\n      dup6\n      swap1\n      shl\n        /* \"#utility.yul\":5249:5306   */\n      or\n        /* \"#utility.yul\":6565:6646   */\n      dup6\n      sstore\n        /* \"#utility.yul\":5712:6656   */\n      jump(tag_179)\n        /* \"#utility.yul\":5742:6405   */\n    tag_180:\n        /* \"#utility.yul\":4570:4571   */\n      0x00\n        /* \"#utility.yul\":4563:4577   */\n      dup6\n      dup2\n      mstore\n        /* \"#utility.yul\":4607:4611   */\n      0x20\n        /* \"#utility.yul\":4594:4612   */\n      dup2\n      keccak256\n      not(0x1f)\n        /* \"#utility.yul\":5778:5798   */\n      dup7\n      and\n      swap2\n        /* \"#utility.yul\":5896:6132   */\n    tag_184:\n        /* \"#utility.yul\":5910:5917   */\n      dup3\n        /* \"#utility.yul\":5907:5908   */\n      dup2\n        /* \"#utility.yul\":5904:5918   */\n      lt\n        /* \"#utility.yul\":5896:6132   */\n      iszero\n      tag_186\n      jumpi\n        /* \"#utility.yul\":5999:6018   */\n      dup9\n      dup7\n      add\n        /* \"#utility.yul\":5993:6019   */\n      mload\n        /* \"#utility.yul\":5978:6020   */\n      dup3\n      sstore\n        /* \"#utility.yul\":6091:6118   */\n      swap5\n      dup5\n      add\n      swap5\n        /* \"#utility.yul\":6059:6060   */\n      0x01\n        /* \"#utility.yul\":6047:6061   */\n      swap1\n      swap2\n      add\n      swap1\n        /* \"#utility.yul\":5926:5945   */\n      dup5\n      add\n        /* \"#utility.yul\":5896:6132   */\n      jump(tag_184)\n    tag_186:\n        /* \"#utility.yul\":5900:5903   */\n      pop\n        /* \"#utility.yul\":6160:6166   */\n      dup6\n        /* \"#utility.yul\":6151:6158   */\n      dup3\n        /* \"#utility.yul\":6148:6167   */\n      lt\n        /* \"#utility.yul\":6145:6346   */\n      iszero\n      tag_187\n      jumpi\n        /* \"#utility.yul\":6221:6240   */\n      dup8\n      dup6\n      add\n        /* \"#utility.yul\":6215:6241   */\n      mload\n      not(0x00)\n        /* \"#utility.yul\":6304:6305   */\n      0x03\n        /* \"#utility.yul\":6300:6314   */\n      dup9\n      swap1\n      shl\n        /* \"#utility.yul\":6316:6319   */\n      0xf8\n        /* \"#utility.yul\":6296:6320   */\n      and\n        /* \"#utility.yul\":6292:6329   */\n      shr\n        /* \"#utility.yul\":6288:6330   */\n      not\n        /* \"#utility.yul\":6273:6331   */\n      and\n        /* \"#utility.yul\":6258:6332   */\n      dup2\n      sstore\n        /* \"#utility.yul\":6145:6346   */\n    tag_187:\n      pop\n      pop\n        /* \"#utility.yul\":6392:6393   */\n      0x01\n        /* \"#utility.yul\":6383:6389   */\n      dup5\n        /* \"#utility.yul\":6380:6381   */\n      0x01\n        /* \"#utility.yul\":6376:6390   */\n      shl\n        /* \"#utility.yul\":6372:6394   */\n      add\n        /* \"#utility.yul\":6366:6370   */\n      dup6\n        /* \"#utility.yul\":6359:6395   */\n      sstore\n        /* \"#utility.yul\":5712:6656   */\n    tag_179:\n      pop\n      pop\n      pop\n      pop\n        /* \"#utility.yul\":5317:6662   */\n      pop\n      pop\n      jump\t// out\n        /* \"#utility.yul\":6667:7050   */\n    tag_75:\n        /* \"#utility.yul\":6864:6866   */\n      0x40\n        /* \"#utility.yul\":6853:6862   */\n      dup2\n        /* \"#utility.yul\":6846:6867   */\n      mstore\n        /* \"#utility.yul\":6827:6831   */\n      0x00\n        /* \"#utility.yul\":6890:6935   */\n      tag_189\n        /* \"#utility.yul\":6931:6933   */\n      0x40\n        /* \"#utility.yul\":6920:6929   */\n      dup4\n        /* \"#utility.yul\":6916:6934   */\n      add\n        /* \"#utility.yul\":6908:6914   */\n      dup6\n        /* \"#utility.yul\":6890:6935   */\n      tag_123\n      jump\t// in\n    tag_189:\n        /* \"#utility.yul\":6983:6992   */\n      dup3\n        /* \"#utility.yul\":6975:6981   */\n      dup2\n        /* \"#utility.yul\":6971:6993   */\n      sub\n        /* \"#utility.yul\":6966:6968   */\n      0x20\n        /* \"#utility.yul\":6955:6964   */\n      dup5\n        /* \"#utility.yul\":6951:6969   */\n      add\n        /* \"#utility.yul\":6944:6994   */\n      mstore\n        /* \"#utility.yul\":7011:7044   */\n      tag_190\n        /* \"#utility.yul\":7037:7043   */\n      dup2\n        /* \"#utility.yul\":7029:7035   */\n      dup6\n        /* \"#utility.yul\":7011:7044   */\n      tag_123\n      jump\t// in\n    tag_190:\n        /* \"#utility.yul\":7003:7044   */\n      swap6\n        /* \"#utility.yul\":6667:7050   */\n      swap5\n      pop\n      pop\n      pop\n      pop\n      pop\n      jump\t// out\n        /* \"#utility.yul\":7055:7462   */\n    tag_85:\n        /* \"#utility.yul\":7257:7259   */\n      0x20\n        /* \"#utility.yul\":7239:7260   */\n      dup1\n      dup3\n      mstore\n        /* \"#utility.yul\":7296:7298   */\n      0x2b\n        /* \"#utility.yul\":7276:7294   */\n      swap1\n      dup3\n      add\n        /* \"#utility.yul\":7269:7299   */\n      mstore\n        /* \"#utility.yul\":7335:7369   */\n      0x4f6e6c7920636f6e7472616374206f776e65722063616e20706572666f726d20\n        /* \"#utility.yul\":7330:7332   */\n      0x40\n        /* \"#utility.yul\":7315:7333   */\n      dup3\n      add\n        /* \"#utility.yul\":7308:7370   */\n      mstore\n      shl(0xa9, 0x3a3434b99030b1ba34b7b7)\n        /* \"#utility.yul\":7401:7403   */\n      0x60\n        /* \"#utility.yul\":7386:7404   */\n      dup3\n      add\n        /* \"#utility.yul\":7379:7420   */\n      mstore\n        /* \"#utility.yul\":7452:7455   */\n      0x80\n        /* \"#utility.yul\":7437:7456   */\n      add\n      swap1\n        /* \"#utility.yul\":7055:7462   */\n      jump\t// out\n        /* \"#utility.yul\":7467:7822   */\n    tag_90:\n        /* \"#utility.yul\":7669:7671   */\n      0x20\n        /* \"#utility.yul\":7651:7672   */\n      dup1\n      dup3\n      mstore\n        /* \"#utility.yul\":7708:7710   */\n      0x1f\n        /* \"#utility.yul\":7688:7706   */\n      swap1\n      dup3\n      add\n        /* \"#utility.yul\":7681:7711   */\n      mstore\n        /* \"#utility.yul\":7747:7780   */\n      0x53656e646572206e6f7420617574686f72697a656420726567756c61746f7200\n        /* \"#utility.yul\":7742:7744   */\n      0x40\n        /* \"#utility.yul\":7727:7745   */\n      dup3\n      add\n        /* \"#utility.yul\":7720:7781   */\n      mstore\n        /* \"#utility.yul\":7813:7815   */\n      0x60\n        /* \"#utility.yul\":7798:7816   */\n      add\n      swap1\n        /* \"#utility.yul\":7467:7822   */\n      jump\t// out\n        /* \"#utility.yul\":7827:8281   */\n    tag_95:\n        /* \"#utility.yul\":8052:8054   */\n      0x60\n        /* \"#utility.yul\":8041:8050   */\n      dup2\n        /* \"#utility.yul\":8034:8055   */\n      mstore\n        /* \"#utility.yul\":8015:8019   */\n      0x00\n        /* \"#utility.yul\":8078:8123   */\n      tag_194\n        /* \"#utility.yul\":8119:8121   */\n      0x60\n        /* \"#utility.yul\":8108:8117   */\n      dup4\n        /* \"#utility.yul\":8104:8122   */\n      add\n        /* \"#utility.yul\":8096:8102   */\n      dup7\n        /* \"#utility.yul\":8078:8123   */\n      tag_123\n      jump\t// in\n    tag_194:\n        /* \"#utility.yul\":8171:8180   */\n      dup3\n        /* \"#utility.yul\":8163:8169   */\n      dup2\n        /* \"#utility.yul\":8159:8181   */\n      sub\n        /* \"#utility.yul\":8154:8156   */\n      0x20\n        /* \"#utility.yul\":8143:8152   */\n      dup5\n        /* \"#utility.yul\":8139:8157   */\n      add\n        /* \"#utility.yul\":8132:8182   */\n      mstore\n        /* \"#utility.yul\":8199:8232   */\n      tag_195\n        /* \"#utility.yul\":8225:8231   */\n      dup2\n        /* \"#utility.yul\":8217:8223   */\n      dup7\n        /* \"#utility.yul\":8199:8232   */\n      tag_123\n      jump\t// in\n    tag_195:\n        /* \"#utility.yul\":8191:8232   */\n      swap2\n      pop\n      pop\n        /* \"#utility.yul\":8268:8274   */\n      dup3\n        /* \"#utility.yul\":8263:8265   */\n      0x40\n        /* \"#utility.yul\":8252:8261   */\n      dup4\n        /* \"#utility.yul\":8248:8266   */\n      add\n        /* \"#utility.yul\":8241:8275   */\n      mstore\n        /* \"#utility.yul\":7827:8281   */\n      swap5\n      swap4\n      pop\n      pop\n      pop\n      pop\n      jump\t// out\n        /* \"#utility.yul\":8286:8577   */\n    tag_103:\n        /* \"#utility.yul\":8463:8465   */\n      0x40\n        /* \"#utility.yul\":8452:8461   */\n      dup2\n        /* \"#utility.yul\":8445:8466   */\n      mstore\n        /* \"#utility.yul\":8426:8430   */\n      0x00\n        /* \"#utility.yul\":8483:8528   */\n      tag_197\n        /* \"#utility.yul\":8524:8526   */\n      0x40\n        /* \"#utility.yul\":8513:8522   */\n      dup4\n        /* \"#utility.yul\":8509:8527   */\n      add\n        /* \"#utility.yul\":8501:8507   */\n      dup6\n        /* \"#utility.yul\":8483:8528   */\n      tag_123\n      jump\t// in\n    tag_197:\n        /* \"#utility.yul\":8475:8528   */\n      swap1\n      pop\n        /* \"#utility.yul\":8564:8570   */\n      dup3\n        /* \"#utility.yul\":8559:8561   */\n      0x20\n        /* \"#utility.yul\":8548:8557   */\n      dup4\n        /* \"#utility.yul\":8544:8562   */\n      add\n        /* \"#utility.yul\":8537:8571   */\n      mstore\n        /* \"#utility.yul\":8286:8577   */\n      swap4\n      swap3\n      pop\n      pop\n      pop\n      jump\t// out\n        /* \"#utility.yul\":8764:9960   */\n    tag_119:\n        /* \"#utility.yul\":8886:8904   */\n      0xffffffffffffffff\n        /* \"#utility.yul\":8881:8884   */\n      dup4\n        /* \"#utility.yul\":8878:8905   */\n      gt\n        /* \"#utility.yul\":8875:8928   */\n      iszero\n      tag_201\n      jumpi\n        /* \"#utility.yul\":8908:8926   */\n      tag_201\n      tag_121\n      jump\t// in\n    tag_201:\n        /* \"#utility.yul\":8937:9031   */\n      tag_202\n        /* \"#utility.yul\":9027:9030   */\n      dup4\n        /* \"#utility.yul\":8987:9025   */\n      tag_203\n        /* \"#utility.yul\":9019:9023   */\n      dup4\n        /* \"#utility.yul\":9013:9024   */\n      sload\n        /* \"#utility.yul\":8987:9025   */\n      tag_63\n      jump\t// in\n    tag_203:\n        /* \"#utility.yul\":8981:8985   */\n      dup4\n        /* \"#utility.yul\":8937:9031   */\n      tag_125\n      jump\t// in\n    tag_202:\n        /* \"#utility.yul\":9057:9058   */\n      0x00\n        /* \"#utility.yul\":9082:9084   */\n      0x1f\n        /* \"#utility.yul\":9077:9080   */\n      dup5\n        /* \"#utility.yul\":9074:9085   */\n      gt\n        /* \"#utility.yul\":9099:9100   */\n      0x01\n        /* \"#utility.yul\":9094:9702   */\n      dup2\n      eq\n      tag_205\n      jumpi\n        /* \"#utility.yul\":9746:9747   */\n      0x00\n        /* \"#utility.yul\":9763:9766   */\n      dup6\n        /* \"#utility.yul\":9760:9853   */\n      iszero\n      tag_206\n      jumpi\n      pop\n        /* \"#utility.yul\":9819:9838   */\n      dup4\n      dup3\n      add\n        /* \"#utility.yul\":9806:9839   */\n      calldataload\n        /* \"#utility.yul\":9760:9853   */\n    tag_206:\n      not(0x00)\n        /* \"#utility.yul\":5274:5275   */\n      0x03\n        /* \"#utility.yul\":5270:5281   */\n      dup8\n      swap1\n      shl\n        /* \"#utility.yul\":5266:5290   */\n      shr\n        /* \"#utility.yul\":5262:5291   */\n      not\n        /* \"#utility.yul\":5252:5292   */\n      and\n        /* \"#utility.yul\":5298:5299   */\n      0x01\n        /* \"#utility.yul\":5294:5305   */\n      dup7\n      swap1\n      shl\n        /* \"#utility.yul\":5249:5306   */\n      or\n        /* \"#utility.yul\":9866:9944   */\n      dup4\n      sstore\n        /* \"#utility.yul\":9067:9954   */\n      jump(tag_172)\n        /* \"#utility.yul\":9094:9702   */\n    tag_205:\n        /* \"#utility.yul\":4570:4571   */\n      0x00\n        /* \"#utility.yul\":4563:4577   */\n      dup4\n      dup2\n      mstore\n        /* \"#utility.yul\":4607:4611   */\n      0x20\n        /* \"#utility.yul\":4594:4612   */\n      dup2\n      keccak256\n      not(0x1f)\n        /* \"#utility.yul\":9130:9147   */\n      dup8\n      and\n      swap2\n        /* \"#utility.yul\":9245:9474   */\n    tag_209:\n        /* \"#utility.yul\":9259:9266   */\n      dup3\n        /* \"#utility.yul\":9256:9257   */\n      dup2\n        /* \"#utility.yul\":9253:9267   */\n      lt\n        /* \"#utility.yul\":9245:9474   */\n      iszero\n      tag_211\n      jumpi\n        /* \"#utility.yul\":9348:9367   */\n      dup7\n      dup6\n      add\n        /* \"#utility.yul\":9335:9368   */\n      calldataload\n        /* \"#utility.yul\":9320:9369   */\n      dup3\n      sstore\n        /* \"#utility.yul\":9455:9459   */\n      0x20\n        /* \"#utility.yul\":9440:9460   */\n      swap5\n      dup6\n      add\n      swap5\n        /* \"#utility.yul\":9408:9409   */\n      0x01\n        /* \"#utility.yul\":9396:9410   */\n      swap1\n      swap3\n      add\n      swap2\n        /* \"#utility.yul\":9275:9287   */\n      add\n        /* \"#utility.yul\":9245:9474   */\n      jump(tag_209)\n    tag_211:\n        /* \"#utility.yul\":9249:9252   */\n      pop\n        /* \"#utility.yul\":9502:9505   */\n      dup7\n        /* \"#utility.yul\":9493:9500   */\n      dup3\n        /* \"#utility.yul\":9490:9506   */\n      lt\n        /* \"#utility.yul\":9487:9646   */\n      iszero\n      tag_212\n      jumpi\n        /* \"#utility.yul\":9626:9627   */\n      0x00\n        /* \"#utility.yul\":9622:9628   */\n      not\n        /* \"#utility.yul\":9616:9619   */\n      0xf8\n        /* \"#utility.yul\":9610:9613   */\n      dup9\n        /* \"#utility.yul\":9607:9608   */\n      0x03\n        /* \"#utility.yul\":9603:9614   */\n      shl\n        /* \"#utility.yul\":9599:9620   */\n      and\n        /* \"#utility.yul\":9595:9629   */\n      shr\n        /* \"#utility.yul\":9591:9630   */\n      not\n        /* \"#utility.yul\":9578:9587   */\n      dup5\n        /* \"#utility.yul\":9573:9576   */\n      dup8\n        /* \"#utility.yul\":9569:9588   */\n      add\n        /* \"#utility.yul\":9556:9589   */\n      calldataload\n        /* \"#utility.yul\":9552:9631   */\n      and\n        /* \"#utility.yul\":9544:9550   */\n      dup2\n        /* \"#utility.yul\":9537:9632   */\n      sstore\n        /* \"#utility.yul\":9487:9646   */\n    tag_212:\n      pop\n      pop\n        /* \"#utility.yul\":9689:9690   */\n      0x01\n        /* \"#utility.yul\":9683:9686   */\n      dup6\n        /* \"#utility.yul\":9680:9681   */\n      0x01\n        /* \"#utility.yul\":9676:9687   */\n      shl\n        /* \"#utility.yul\":9672:9691   */\n      add\n        /* \"#utility.yul\":9666:9670   */\n      dup4\n        /* \"#utility.yul\":9659:9692   */\n      sstore\n        /* \"#utility.yul\":9067:9954   */\n      pop\n      pop\n        /* \"#utility.yul\":8764:9960   */\n      pop\n      pop\n      pop\n      jump\t// out\n\n    auxdata: 0xa2646970667358221220149a53caaf1b7f76304d3e2f5c7adbf820d2c1d0c47ff2595730af4b91418bd464736f6c63430008190033\n}\n",
				"bytecode": {
					"linkReferences": {},
					"object": "6080604052348015600e575f80fd5b50600480546001600160a01b03191633179055610c458061002e5f395ff3fe608060405234801561000f575f80fd5b50600436106100a6575f3560e01c80637d8993b91161006e5780637d8993b9146101405780638da5cb5b14610153578063a222b7071461017e578063eb2c022314610191578063ec1e74bb146101a4578063eedeb218146101b7575f80fd5b806317b702e5146100aa578063358ce0b1146100d357806338ddf0ac146100e85780635815913c146100fb57806379be76591461012d575b5f80fd5b6100bd6100b8366004610763565b6101ca565b6040516100ca91906107f1565b60405180910390f35b6100e66100e1366004610763565b610288565b005b6100bd6100f636600461080a565b610347565b61011d610109366004610821565b60016020525f908152604090205460ff1681565b60405190151581526020016100ca565b6100e661013b366004610821565b6103e6565b6100e661014e366004610763565b610439565b600454610166906001600160a01b031681565b6040516001600160a01b0390911681526020016100ca565b6100e661018c366004610847565b6104e5565b6100e661019f366004610821565b61058d565b6100e66101b2366004610821565b6105fd565b6100e66101c5366004610881565b61064d565b335f90815260208190526040908190209051606091906101eb9084906108f6565b908152602001604051809103902080546102049061090c565b80601f01602080910402602001604051908101604052809291908181526020018280546102309061090c565b801561027b5780601f106102525761010080835404028352916020019161027b565b820191905f5260205f20905b81548152906001019060200180831161025e57829003601f168201915b5050505050905092915050565b6102b460405180606001604052805f6001600160a01b0316815260200160608152602001606081525090565b33808252602080830185815260408085018690525f9384529183905291819020915190518492916102e4916108f6565b908152602001604051809103902090816102fe9190610990565b50336001600160a01b03167f782fdc1bab62ff34efbcebcd9f74a898276f812172674da94edde8273a3b0b4a848460405161033a929190610a50565b60405180910390a2505050565b5f8181526002602052604090208054606091906103639061090c565b80601f016020809104026020016040519081016040528092919081815260200182805461038f9061090c565b80156103da5780601f106103b1576101008083540402835291602001916103da565b820191905f5260205f20905b8154815290600101906020018083116103bd57829003601f168201915b50505050509050919050565b6004546001600160a01b031633146104195760405162461bcd60e51b815260040161041090610a7d565b60405180910390fd5b6001600160a01b03165f908152600160205260409020805460ff19169055565b335f9081526001602052604090205460ff166104675760405162461bcd60e51b815260040161041090610ac8565b61049960405180608001604052805f6001600160a01b0316815260200160608152602001606081526020015f81525090565b33808252602082018490526040808301849052426060840181905290517f5a86f65e7a2108615efadb90946fe9244f0b0c57b19cab313dd3e150d0c9825d9161033a9187918791610aff565b335f9081526001602052604090205460ff166105135760405162461bcd60e51b815260040161041090610ac8565b61053e60405180606001604052805f6001600160a01b03168152602001606081526020015f81525090565b3380825260208201839052426040808401829052517f0dae1e228bfeda5aaa63f0880d00ca88c2232bf2bbbb03ee51643a359619a6839161058191869190610b34565b60405180910390a25050565b6004546001600160a01b031633146105b75760405162461bcd60e51b815260040161041090610a7d565b806001600160a01b03167f36ad2521ebac3d572eeb7e618d4f6d0a8e1e6180634926360341d6beb52bf9d8426040516105f291815260200190565b60405180910390a250565b6004546001600160a01b031633146106275760405162461bcd60e51b815260040161041090610a7d565b6001600160a01b03165f908152600160208190526040909120805460ff19169091179055565b335f9081526001602052604090205460ff1661067b5760405162461bcd60e51b815260040161041090610ac8565b5f838152600360205260409020610693828483610b55565b50827feea6881f152feb998f90468b0271136181104fb647215ca8b87dde9aa1bca0874260405161033a91815260200190565b634e487b7160e01b5f52604160045260245ffd5b5f82601f8301126106e9575f80fd5b813567ffffffffffffffff80821115610704576107046106c6565b604051601f8301601f19908116603f0116810190828211818310171561072c5761072c6106c6565b81604052838152866020858801011115610744575f80fd5b836020870160208301375f602085830101528094505050505092915050565b5f8060408385031215610774575f80fd5b823567ffffffffffffffff8082111561078b575f80fd5b610797868387016106da565b935060208501359150808211156107ac575f80fd5b506107b9858286016106da565b9150509250929050565b5f81518084528060208401602086015e5f602082860101526020601f19601f83011685010191505092915050565b602081525f61080360208301846107c3565b9392505050565b5f6020828403121561081a575f80fd5b5035919050565b5f60208284031215610831575f80fd5b81356001600160a01b0381168114610803575f80fd5b5f60208284031215610857575f80fd5b813567ffffffffffffffff81111561086d575f80fd5b610879848285016106da565b949350505050565b5f805f60408486031215610893575f80fd5b83359250602084013567ffffffffffffffff808211156108b1575f80fd5b818601915086601f8301126108c4575f80fd5b8135818111156108d2575f80fd5b8760208285010111156108e3575f80fd5b6020830194508093505050509250925092565b5f82518060208501845e5f920191825250919050565b600181811c9082168061092057607f821691505b60208210810361093e57634e487b7160e01b5f52602260045260245ffd5b50919050565b601f82111561098b57805f5260205f20601f840160051c810160208510156109695750805b601f840160051c820191505b81811015610988575f8155600101610975565b50505b505050565b815167ffffffffffffffff8111156109aa576109aa6106c6565b6109be816109b8845461090c565b84610944565b602080601f8311600181146109f1575f84156109da5750858301515b5f19600386901b1c1916600185901b178555610a48565b5f85815260208120601f198616915b82811015610a1f57888601518255948401946001909101908401610a00565b5085821015610a3c57878501515f19600388901b60f8161c191681555b505060018460011b0185555b505050505050565b604081525f610a6260408301856107c3565b8281036020840152610a7481856107c3565b95945050505050565b6020808252602b908201527f4f6e6c7920636f6e7472616374206f776e65722063616e20706572666f726d2060408201526a3a3434b99030b1ba34b7b760a91b606082015260800190565b6020808252601f908201527f53656e646572206e6f7420617574686f72697a656420726567756c61746f7200604082015260600190565b606081525f610b1160608301866107c3565b8281036020840152610b2381866107c3565b915050826040830152949350505050565b604081525f610b4660408301856107c3565b90508260208301529392505050565b67ffffffffffffffff831115610b6d57610b6d6106c6565b610b8183610b7b835461090c565b83610944565b5f601f841160018114610bb2575f8515610b9b5750838201355b5f19600387901b1c1916600186901b178355610988565b5f83815260208120601f198716915b82811015610be15786850135825560209485019460019092019101610bc1565b5086821015610bfd575f1960f88860031b161c19848701351681555b505060018560011b018355505050505056fea2646970667358221220149a53caaf1b7f76304d3e2f5c7adbf820d2c1d0c47ff2595730af4b91418bd464736f6c63430008190033",
					"opcodes": "PUSH1 0x80 PUSH1 0x40 MSTORE CALLVALUE DUP1 ISZERO PUSH1 0xE JUMPI PUSH0 DUP1 REVERT JUMPDEST POP PUSH1 0x4 DUP1 SLOAD PUSH1 0x1 PUSH1 0x1 PUSH1 0xA0 SHL SUB NOT AND CALLER OR SWAP1 SSTORE PUSH2 0xC45 DUP1 PUSH2 0x2E PUSH0 CODECOPY PUSH0 RETURN INVALID PUSH1 0x80 PUSH1 0x40 MSTORE CALLVALUE DUP1 ISZERO PUSH2 0xF JUMPI PUSH0 DUP1 REVERT JUMPDEST POP PUSH1 0x4 CALLDATASIZE LT PUSH2 0xA6 JUMPI PUSH0 CALLDATALOAD PUSH1 0xE0 SHR DUP1 PUSH4 0x7D8993B9 GT PUSH2 0x6E JUMPI DUP1 PUSH4 0x7D8993B9 EQ PUSH2 0x140 JUMPI DUP1 PUSH4 0x8DA5CB5B EQ PUSH2 0x153 JUMPI DUP1 PUSH4 0xA222B707 EQ PUSH2 0x17E JUMPI DUP1 PUSH4 0xEB2C0223 EQ PUSH2 0x191 JUMPI DUP1 PUSH4 0xEC1E74BB EQ PUSH2 0x1A4 JUMPI DUP1 PUSH4 0xEEDEB218 EQ PUSH2 0x1B7 JUMPI PUSH0 DUP1 REVERT JUMPDEST DUP1 PUSH4 0x17B702E5 EQ PUSH2 0xAA JUMPI DUP1 PUSH4 0x358CE0B1 EQ PUSH2 0xD3 JUMPI DUP1 PUSH4 0x38DDF0AC EQ PUSH2 0xE8 JUMPI DUP1 PUSH4 0x5815913C EQ PUSH2 0xFB JUMPI DUP1 PUSH4 0x79BE7659 EQ PUSH2 0x12D JUMPI JUMPDEST PUSH0 DUP1 REVERT JUMPDEST PUSH2 0xBD PUSH2 0xB8 CALLDATASIZE PUSH1 0x4 PUSH2 0x763 JUMP JUMPDEST PUSH2 0x1CA JUMP JUMPDEST PUSH1 0x40 MLOAD PUSH2 0xCA SWAP2 SWAP1 PUSH2 0x7F1 JUMP JUMPDEST PUSH1 0x40 MLOAD DUP1 SWAP2 SUB SWAP1 RETURN JUMPDEST PUSH2 0xE6 PUSH2 0xE1 CALLDATASIZE PUSH1 0x4 PUSH2 0x763 JUMP JUMPDEST PUSH2 0x288 JUMP JUMPDEST STOP JUMPDEST PUSH2 0xBD PUSH2 0xF6 CALLDATASIZE PUSH1 0x4 PUSH2 0x80A JUMP JUMPDEST PUSH2 0x347 JUMP JUMPDEST PUSH2 0x11D PUSH2 0x109 CALLDATASIZE PUSH1 0x4 PUSH2 0x821 JUMP JUMPDEST PUSH1 0x1 PUSH1 0x20 MSTORE PUSH0 SWAP1 DUP2 MSTORE PUSH1 0x40 SWAP1 KECCAK256 SLOAD PUSH1 0xFF AND DUP2 JUMP JUMPDEST PUSH1 0x40 MLOAD SWAP1 ISZERO ISZERO DUP2 MSTORE PUSH1 0x20 ADD PUSH2 0xCA JUMP JUMPDEST PUSH2 0xE6 PUSH2 0x13B CALLDATASIZE PUSH1 0x4 PUSH2 0x821 JUMP JUMPDEST PUSH2 0x3E6 JUMP JUMPDEST PUSH2 0xE6 PUSH2 0x14E CALLDATASIZE PUSH1 0x4 PUSH2 0x763 JUMP JUMPDEST PUSH2 0x439 JUMP JUMPDEST PUSH1 0x4 SLOAD PUSH2 0x166 SWAP1 PUSH1 0x1 PUSH1 0x1 PUSH1 0xA0 SHL SUB AND DUP2 JUMP JUMPDEST PUSH1 0x40 MLOAD PUSH1 0x1 PUSH1 0x1 PUSH1 0xA0 SHL SUB SWAP1 SWAP2 AND DUP2 MSTORE PUSH1 0x20 ADD PUSH2 0xCA JUMP JUMPDEST PUSH2 0xE6 PUSH2 0x18C CALLDATASIZE PUSH1 0x4 PUSH2 0x847 JUMP JUMPDEST PUSH2 0x4E5 JUMP JUMPDEST PUSH2 0xE6 PUSH2 0x19F CALLDATASIZE PUSH1 0x4 PUSH2 0x821 JUMP JUMPDEST PUSH2 0x58D JUMP JUMPDEST PUSH2 0xE6 PUSH2 0x1B2 CALLDATASIZE PUSH1 0x4 PUSH2 0x821 JUMP JUMPDEST PUSH2 0x5FD JUMP JUMPDEST PUSH2 0xE6 PUSH2 0x1C5 CALLDATASIZE PUSH1 0x4 PUSH2 0x881 JUMP JUMPDEST PUSH2 0x64D JUMP JUMPDEST CALLER PUSH0 SWAP1 DUP2 MSTORE PUSH1 0x20 DUP2 SWAP1 MSTORE PUSH1 0x40 SWAP1 DUP2 SWAP1 KECCAK256 SWAP1 MLOAD PUSH1 0x60 SWAP2 SWAP1 PUSH2 0x1EB SWAP1 DUP5 SWAP1 PUSH2 0x8F6 JUMP JUMPDEST SWAP1 DUP2 MSTORE PUSH1 0x20 ADD PUSH1 0x40 MLOAD DUP1 SWAP2 SUB SWAP1 KECCAK256 DUP1 SLOAD PUSH2 0x204 SWAP1 PUSH2 0x90C JUMP JUMPDEST DUP1 PUSH1 0x1F ADD PUSH1 0x20 DUP1 SWAP2 DIV MUL PUSH1 0x20 ADD PUSH1 0x40 MLOAD SWAP1 DUP2 ADD PUSH1 0x40 MSTORE DUP1 SWAP3 SWAP2 SWAP1 DUP2 DUP2 MSTORE PUSH1 0x20 ADD DUP3 DUP1 SLOAD PUSH2 0x230 SWAP1 PUSH2 0x90C JUMP JUMPDEST DUP1 ISZERO PUSH2 0x27B JUMPI DUP1 PUSH1 0x1F LT PUSH2 0x252 JUMPI PUSH2 0x100 DUP1 DUP4 SLOAD DIV MUL DUP4 MSTORE SWAP2 PUSH1 0x20 ADD SWAP2 PUSH2 0x27B JUMP JUMPDEST DUP3 ADD SWAP2 SWAP1 PUSH0 MSTORE PUSH1 0x20 PUSH0 KECCAK256 SWAP1 JUMPDEST DUP2 SLOAD DUP2 MSTORE SWAP1 PUSH1 0x1 ADD SWAP1 PUSH1 0x20 ADD DUP1 DUP4 GT PUSH2 0x25E JUMPI DUP3 SWAP1 SUB PUSH1 0x1F AND DUP3 ADD SWAP2 JUMPDEST POP POP POP POP POP SWAP1 POP SWAP3 SWAP2 POP POP JUMP JUMPDEST PUSH2 0x2B4 PUSH1 0x40 MLOAD DUP1 PUSH1 0x60 ADD PUSH1 0x40 MSTORE DUP1 PUSH0 PUSH1 0x1 PUSH1 0x1 PUSH1 0xA0 SHL SUB AND DUP2 MSTORE PUSH1 0x20 ADD PUSH1 0x60 DUP2 MSTORE PUSH1 0x20 ADD PUSH1 0x60 DUP2 MSTORE POP SWAP1 JUMP JUMPDEST CALLER DUP1 DUP3 MSTORE PUSH1 0x20 DUP1 DUP4 ADD DUP6 DUP2 MSTORE PUSH1 0x40 DUP1 DUP6 ADD DUP7 SWAP1 MSTORE PUSH0 SWAP4 DUP5 MSTORE SWAP2 DUP4 SWAP1 MSTORE SWAP2 DUP2 SWAP1 KECCAK256 SWAP2 MLOAD SWAP1 MLOAD DUP5 SWAP3 SWAP2 PUSH2 0x2E4 SWAP2 PUSH2 0x8F6 JUMP JUMPDEST SWAP1 DUP2 MSTORE PUSH1 0x20 ADD PUSH1 0x40 MLOAD DUP1 SWAP2 SUB SWAP1 KECCAK256 SWAP1 DUP2 PUSH2 0x2FE SWAP2 SWAP1 PUSH2 0x990 JUMP JUMPDEST POP CALLER PUSH1 0x1 PUSH1 0x1 PUSH1 0xA0 SHL SUB AND PUSH32 0x782FDC1BAB62FF34EFBCEBCD9F74A898276F812172674DA94EDDE8273A3B0B4A DUP5 DUP5 PUSH1 0x40 MLOAD PUSH2 0x33A SWAP3 SWAP2 SWAP1 PUSH2 0xA50 JUMP JUMPDEST PUSH1 0x40 MLOAD DUP1 SWAP2 SUB SWAP1 LOG2 POP POP POP JUMP JUMPDEST PUSH0 DUP2 DUP2 MSTORE PUSH1 0x2 PUSH1 0x20 MSTORE PUSH1 0x40 SWAP1 KECCAK256 DUP1 SLOAD PUSH1 0x60 SWAP2 SWAP1 PUSH2 0x363 SWAP1 PUSH2 0x90C JUMP JUMPDEST DUP1 PUSH1 0x1F ADD PUSH1 0x20 DUP1 SWAP2 DIV MUL PUSH1 0x20 ADD PUSH1 0x40 MLOAD SWAP1 DUP2 ADD PUSH1 0x40 MSTORE DUP1 SWAP3 SWAP2 SWAP1 DUP2 DUP2 MSTORE PUSH1 0x20 ADD DUP3 DUP1 SLOAD PUSH2 0x38F SWAP1 PUSH2 0x90C JUMP JUMPDEST DUP1 ISZERO PUSH2 0x3DA JUMPI DUP1 PUSH1 0x1F LT PUSH2 0x3B1 JUMPI PUSH2 0x100 DUP1 DUP4 SLOAD DIV MUL DUP4 MSTORE SWAP2 PUSH1 0x20 ADD SWAP2 PUSH2 0x3DA JUMP JUMPDEST DUP3 ADD SWAP2 SWAP1 PUSH0 MSTORE PUSH1 0x20 PUSH0 KECCAK256 SWAP1 JUMPDEST DUP2 SLOAD DUP2 MSTORE SWAP1 PUSH1 0x1 ADD SWAP1 PUSH1 0x20 ADD DUP1 DUP4 GT PUSH2 0x3BD JUMPI DUP3 SWAP1 SUB PUSH1 0x1F AND DUP3 ADD SWAP2 JUMPDEST POP POP POP POP POP SWAP1 POP SWAP2 SWAP1 POP JUMP JUMPDEST PUSH1 0x4 SLOAD PUSH1 0x1 PUSH1 0x1 PUSH1 0xA0 SHL SUB AND CALLER EQ PUSH2 0x419 JUMPI PUSH1 0x40 MLOAD PUSH3 0x461BCD PUSH1 0xE5 SHL DUP2 MSTORE PUSH1 0x4 ADD PUSH2 0x410 SWAP1 PUSH2 0xA7D JUMP JUMPDEST PUSH1 0x40 MLOAD DUP1 SWAP2 SUB SWAP1 REVERT JUMPDEST PUSH1 0x1 PUSH1 0x1 PUSH1 0xA0 SHL SUB AND PUSH0 SWAP1 DUP2 MSTORE PUSH1 0x1 PUSH1 0x20 MSTORE PUSH1 0x40 SWAP1 KECCAK256 DUP1 SLOAD PUSH1 0xFF NOT AND SWAP1 SSTORE JUMP JUMPDEST CALLER PUSH0 SWAP1 DUP2 MSTORE PUSH1 0x1 PUSH1 0x20 MSTORE PUSH1 0x40 SWAP1 KECCAK256 SLOAD PUSH1 0xFF AND PUSH2 0x467 JUMPI PUSH1 0x40 MLOAD PUSH3 0x461BCD PUSH1 0xE5 SHL DUP2 MSTORE PUSH1 0x4 ADD PUSH2 0x410 SWAP1 PUSH2 0xAC8 JUMP JUMPDEST PUSH2 0x499 PUSH1 0x40 MLOAD DUP1 PUSH1 0x80 ADD PUSH1 0x40 MSTORE DUP1 PUSH0 PUSH1 0x1 PUSH1 0x1 PUSH1 0xA0 SHL SUB AND DUP2 MSTORE PUSH1 0x20 ADD PUSH1 0x60 DUP2 MSTORE PUSH1 0x20 ADD PUSH1 0x60 DUP2 MSTORE PUSH1 0x20 ADD PUSH0 DUP2 MSTORE POP SWAP1 JUMP JUMPDEST CALLER DUP1 DUP3 MSTORE PUSH1 0x20 DUP3 ADD DUP5 SWAP1 MSTORE PUSH1 0x40 DUP1 DUP4 ADD DUP5 SWAP1 MSTORE TIMESTAMP PUSH1 0x60 DUP5 ADD DUP2 SWAP1 MSTORE SWAP1 MLOAD PUSH32 0x5A86F65E7A2108615EFADB90946FE9244F0B0C57B19CAB313DD3E150D0C9825D SWAP2 PUSH2 0x33A SWAP2 DUP8 SWAP2 DUP8 SWAP2 PUSH2 0xAFF JUMP JUMPDEST CALLER PUSH0 SWAP1 DUP2 MSTORE PUSH1 0x1 PUSH1 0x20 MSTORE PUSH1 0x40 SWAP1 KECCAK256 SLOAD PUSH1 0xFF AND PUSH2 0x513 JUMPI PUSH1 0x40 MLOAD PUSH3 0x461BCD PUSH1 0xE5 SHL DUP2 MSTORE PUSH1 0x4 ADD PUSH2 0x410 SWAP1 PUSH2 0xAC8 JUMP JUMPDEST PUSH2 0x53E PUSH1 0x40 MLOAD DUP1 PUSH1 0x60 ADD PUSH1 0x40 MSTORE DUP1 PUSH0 PUSH1 0x1 PUSH1 0x1 PUSH1 0xA0 SHL SUB AND DUP2 MSTORE PUSH1 0x20 ADD PUSH1 0x60 DUP2 MSTORE PUSH1 0x20 ADD PUSH0 DUP2 MSTORE POP SWAP1 JUMP JUMPDEST CALLER DUP1 DUP3 MSTORE PUSH1 0x20 DUP3 ADD DUP4 SWAP1 MSTORE TIMESTAMP PUSH1 0x40 DUP1 DUP5 ADD DUP3 SWAP1 MSTORE MLOAD PUSH32 0xDAE1E228BFEDA5AAA63F0880D00CA88C2232BF2BBBB03EE51643A359619A683 SWAP2 PUSH2 0x581 SWAP2 DUP7 SWAP2 SWAP1 PUSH2 0xB34 JUMP JUMPDEST PUSH1 0x40 MLOAD DUP1 SWAP2 SUB SWAP1 LOG2 POP POP JUMP JUMPDEST PUSH1 0x4 SLOAD PUSH1 0x1 PUSH1 0x1 PUSH1 0xA0 SHL SUB AND CALLER EQ PUSH2 0x5B7 JUMPI PUSH1 0x40 MLOAD PUSH3 0x461BCD PUSH1 0xE5 SHL DUP2 MSTORE PUSH1 0x4 ADD PUSH2 0x410 SWAP1 PUSH2 0xA7D JUMP JUMPDEST DUP1 PUSH1 0x1 PUSH1 0x1 PUSH1 0xA0 SHL SUB AND PUSH32 0x36AD2521EBAC3D572EEB7E618D4F6D0A8E1E6180634926360341D6BEB52BF9D8 TIMESTAMP PUSH1 0x40 MLOAD PUSH2 0x5F2 SWAP2 DUP2 MSTORE PUSH1 0x20 ADD SWAP1 JUMP JUMPDEST PUSH1 0x40 MLOAD DUP1 SWAP2 SUB SWAP1 LOG2 POP JUMP JUMPDEST PUSH1 0x4 SLOAD PUSH1 0x1 PUSH1 0x1 PUSH1 0xA0 SHL SUB AND CALLER EQ PUSH2 0x627 JUMPI PUSH1 0x40 MLOAD PUSH3 0x461BCD PUSH1 0xE5 SHL DUP2 MSTORE PUSH1 0x4 ADD PUSH2 0x410 SWAP1 PUSH2 0xA7D JUMP JUMPDEST PUSH1 0x1 PUSH1 0x1 PUSH1 0xA0 SHL SUB AND PUSH0 SWAP1 DUP2 MSTORE PUSH1 0x1 PUSH1 0x20 DUP2 SWAP1 MSTORE PUSH1 0x40 SWAP1 SWAP2 KECCAK256 DUP1 SLOAD PUSH1 0xFF NOT AND SWAP1 SWAP2 OR SWAP1 SSTORE JUMP JUMPDEST CALLER PUSH0 SWAP1 DUP2 MSTORE PUSH1 0x1 PUSH1 0x20 MSTORE PUSH1 0x40 SWAP1 KECCAK256 SLOAD PUSH1 0xFF AND PUSH2 0x67B JUMPI PUSH1 0x40 MLOAD PUSH3 0x461BCD PUSH1 0xE5 SHL DUP2 MSTORE PUSH1 0x4 ADD PUSH2 0x410 SWAP1 PUSH2 0xAC8 JUMP JUMPDEST PUSH0 DUP4 DUP2 MSTORE PUSH1 0x3 PUSH1 0x20 MSTORE PUSH1 0x40 SWAP1 KECCAK256 PUSH2 0x693 DUP3 DUP5 DUP4 PUSH2 0xB55 JUMP JUMPDEST POP DUP3 PUSH32 0xEEA6881F152FEB998F90468B0271136181104FB647215CA8B87DDE9AA1BCA087 TIMESTAMP PUSH1 0x40 MLOAD PUSH2 0x33A SWAP2 DUP2 MSTORE PUSH1 0x20 ADD SWAP1 JUMP JUMPDEST PUSH4 0x4E487B71 PUSH1 0xE0 SHL PUSH0 MSTORE PUSH1 0x41 PUSH1 0x4 MSTORE PUSH1 0x24 PUSH0 REVERT JUMPDEST PUSH0 DUP3 PUSH1 0x1F DUP4 ADD SLT PUSH2 0x6E9 JUMPI PUSH0 DUP1 REVERT JUMPDEST DUP2 CALLDATALOAD PUSH8 0xFFFFFFFFFFFFFFFF DUP1 DUP3 GT ISZERO PUSH2 0x704 JUMPI PUSH2 0x704 PUSH2 0x6C6 JUMP JUMPDEST PUSH1 0x40 MLOAD PUSH1 0x1F DUP4 ADD PUSH1 0x1F NOT SWAP1 DUP2 AND PUSH1 0x3F ADD AND DUP2 ADD SWAP1 DUP3 DUP3 GT DUP2 DUP4 LT OR ISZERO PUSH2 0x72C JUMPI PUSH2 0x72C PUSH2 0x6C6 JUMP JUMPDEST DUP2 PUSH1 0x40 MSTORE DUP4 DUP2 MSTORE DUP7 PUSH1 0x20 DUP6 DUP9 ADD ADD GT ISZERO PUSH2 0x744 JUMPI PUSH0 DUP1 REVERT JUMPDEST DUP4 PUSH1 0x20 DUP8 ADD PUSH1 0x20 DUP4 ADD CALLDATACOPY PUSH0 PUSH1 0x20 DUP6 DUP4 ADD ADD MSTORE DUP1 SWAP5 POP POP POP POP POP SWAP3 SWAP2 POP POP JUMP JUMPDEST PUSH0 DUP1 PUSH1 0x40 DUP4 DUP6 SUB SLT ISZERO PUSH2 0x774 JUMPI PUSH0 DUP1 REVERT JUMPDEST DUP3 CALLDATALOAD PUSH8 0xFFFFFFFFFFFFFFFF DUP1 DUP3 GT ISZERO PUSH2 0x78B JUMPI PUSH0 DUP1 REVERT JUMPDEST PUSH2 0x797 DUP7 DUP4 DUP8 ADD PUSH2 0x6DA JUMP JUMPDEST SWAP4 POP PUSH1 0x20 DUP6 ADD CALLDATALOAD SWAP2 POP DUP1 DUP3 GT ISZERO PUSH2 0x7AC JUMPI PUSH0 DUP1 REVERT JUMPDEST POP PUSH2 0x7B9 DUP6 DUP3 DUP7 ADD PUSH2 0x6DA JUMP JUMPDEST SWAP2 POP POP SWAP3 POP SWAP3 SWAP1 POP JUMP JUMPDEST PUSH0 DUP2 MLOAD DUP1 DUP5 MSTORE DUP1 PUSH1 0x20 DUP5 ADD PUSH1 0x20 DUP7 ADD MCOPY PUSH0 PUSH1 0x20 DUP3 DUP7 ADD ADD MSTORE PUSH1 0x20 PUSH1 0x1F NOT PUSH1 0x1F DUP4 ADD AND DUP6 ADD ADD SWAP2 POP POP SWAP3 SWAP2 POP POP JUMP JUMPDEST PUSH1 0x20 DUP2 MSTORE PUSH0 PUSH2 0x803 PUSH1 0x20 DUP4 ADD DUP5 PUSH2 0x7C3 JUMP JUMPDEST SWAP4 SWAP3 POP POP POP JUMP JUMPDEST PUSH0 PUSH1 0x20 DUP3 DUP5 SUB SLT ISZERO PUSH2 0x81A JUMPI PUSH0 DUP1 REVERT JUMPDEST POP CALLDATALOAD SWAP2 SWAP1 POP JUMP JUMPDEST PUSH0 PUSH1 0x20 DUP3 DUP5 SUB SLT ISZERO PUSH2 0x831 JUMPI PUSH0 DUP1 REVERT JUMPDEST DUP2 CALLDATALOAD PUSH1 0x1 PUSH1 0x1 PUSH1 0xA0 SHL SUB DUP2 AND DUP2 EQ PUSH2 0x803 JUMPI PUSH0 DUP1 REVERT JUMPDEST PUSH0 PUSH1 0x20 DUP3 DUP5 SUB SLT ISZERO PUSH2 0x857 JUMPI PUSH0 DUP1 REVERT JUMPDEST DUP2 CALLDATALOAD PUSH8 0xFFFFFFFFFFFFFFFF DUP2 GT ISZERO PUSH2 0x86D JUMPI PUSH0 DUP1 REVERT JUMPDEST PUSH2 0x879 DUP5 DUP3 DUP6 ADD PUSH2 0x6DA JUMP JUMPDEST SWAP5 SWAP4 POP POP POP POP JUMP JUMPDEST PUSH0 DUP1 PUSH0 PUSH1 0x40 DUP5 DUP7 SUB SLT ISZERO PUSH2 0x893 JUMPI PUSH0 DUP1 REVERT JUMPDEST DUP4 CALLDATALOAD SWAP3 POP PUSH1 0x20 DUP5 ADD CALLDATALOAD PUSH8 0xFFFFFFFFFFFFFFFF DUP1 DUP3 GT ISZERO PUSH2 0x8B1 JUMPI PUSH0 DUP1 REVERT JUMPDEST DUP2 DUP7 ADD SWAP2 POP DUP7 PUSH1 0x1F DUP4 ADD SLT PUSH2 0x8C4 JUMPI PUSH0 DUP1 REVERT JUMPDEST DUP2 CALLDATALOAD DUP2 DUP2 GT ISZERO PUSH2 0x8D2 JUMPI PUSH0 DUP1 REVERT JUMPDEST DUP8 PUSH1 0x20 DUP3 DUP6 ADD ADD GT ISZERO PUSH2 0x8E3 JUMPI PUSH0 DUP1 REVERT JUMPDEST PUSH1 0x20 DUP4 ADD SWAP5 POP DUP1 SWAP4 POP POP POP POP SWAP3 POP SWAP3 POP SWAP3 JUMP JUMPDEST PUSH0 DUP3 MLOAD DUP1 PUSH1 0x20 DUP6 ADD DUP5 MCOPY PUSH0 SWAP3 ADD SWAP2 DUP3 MSTORE POP SWAP2 SWAP1 POP JUMP JUMPDEST PUSH1 0x1 DUP2 DUP2 SHR SWAP1 DUP3 AND DUP1 PUSH2 0x920 JUMPI PUSH1 0x7F DUP3 AND SWAP2 POP JUMPDEST PUSH1 0x20 DUP3 LT DUP2 SUB PUSH2 0x93E JUMPI PUSH4 0x4E487B71 PUSH1 0xE0 SHL PUSH0 MSTORE PUSH1 0x22 PUSH1 0x4 MSTORE PUSH1 0x24 PUSH0 REVERT JUMPDEST POP SWAP2 SWAP1 POP JUMP JUMPDEST PUSH1 0x1F DUP3 GT ISZERO PUSH2 0x98B JUMPI DUP1 PUSH0 MSTORE PUSH1 0x20 PUSH0 KECCAK256 PUSH1 0x1F DUP5 ADD PUSH1 0x5 SHR DUP2 ADD PUSH1 0x20 DUP6 LT ISZERO PUSH2 0x969 JUMPI POP DUP1 JUMPDEST PUSH1 0x1F DUP5 ADD PUSH1 0x5 SHR DUP3 ADD SWAP2 POP JUMPDEST DUP2 DUP2 LT ISZERO PUSH2 0x988 JUMPI PUSH0 DUP2 SSTORE PUSH1 0x1 ADD PUSH2 0x975 JUMP JUMPDEST POP POP JUMPDEST POP POP POP JUMP JUMPDEST DUP2 MLOAD PUSH8 0xFFFFFFFFFFFFFFFF DUP2 GT ISZERO PUSH2 0x9AA JUMPI PUSH2 0x9AA PUSH2 0x6C6 JUMP JUMPDEST PUSH2 0x9BE DUP2 PUSH2 0x9B8 DUP5 SLOAD PUSH2 0x90C JUMP JUMPDEST DUP5 PUSH2 0x944 JUMP JUMPDEST PUSH1 0x20 DUP1 PUSH1 0x1F DUP4 GT PUSH1 0x1 DUP2 EQ PUSH2 0x9F1 JUMPI PUSH0 DUP5 ISZERO PUSH2 0x9DA JUMPI POP DUP6 DUP4 ADD MLOAD JUMPDEST PUSH0 NOT PUSH1 0x3 DUP7 SWAP1 SHL SHR NOT AND PUSH1 0x1 DUP6 SWAP1 SHL OR DUP6 SSTORE PUSH2 0xA48 JUMP JUMPDEST PUSH0 DUP6 DUP2 MSTORE PUSH1 0x20 DUP2 KECCAK256 PUSH1 0x1F NOT DUP7 AND SWAP2 JUMPDEST DUP3 DUP2 LT ISZERO PUSH2 0xA1F JUMPI DUP9 DUP7 ADD MLOAD DUP3 SSTORE SWAP5 DUP5 ADD SWAP5 PUSH1 0x1 SWAP1 SWAP2 ADD SWAP1 DUP5 ADD PUSH2 0xA00 JUMP JUMPDEST POP DUP6 DUP3 LT ISZERO PUSH2 0xA3C JUMPI DUP8 DUP6 ADD MLOAD PUSH0 NOT PUSH1 0x3 DUP9 SWAP1 SHL PUSH1 0xF8 AND SHR NOT AND DUP2 SSTORE JUMPDEST POP POP PUSH1 0x1 DUP5 PUSH1 0x1 SHL ADD DUP6 SSTORE JUMPDEST POP POP POP POP POP POP JUMP JUMPDEST PUSH1 0x40 DUP2 MSTORE PUSH0 PUSH2 0xA62 PUSH1 0x40 DUP4 ADD DUP6 PUSH2 0x7C3 JUMP JUMPDEST DUP3 DUP2 SUB PUSH1 0x20 DUP5 ADD MSTORE PUSH2 0xA74 DUP2 DUP6 PUSH2 0x7C3 JUMP JUMPDEST SWAP6 SWAP5 POP POP POP POP POP JUMP JUMPDEST PUSH1 0x20 DUP1 DUP3 MSTORE PUSH1 0x2B SWAP1 DUP3 ADD MSTORE PUSH32 0x4F6E6C7920636F6E7472616374206F776E65722063616E20706572666F726D20 PUSH1 0x40 DUP3 ADD MSTORE PUSH11 0x3A3434B99030B1BA34B7B7 PUSH1 0xA9 SHL PUSH1 0x60 DUP3 ADD MSTORE PUSH1 0x80 ADD SWAP1 JUMP JUMPDEST PUSH1 0x20 DUP1 DUP3 MSTORE PUSH1 0x1F SWAP1 DUP3 ADD MSTORE PUSH32 0x53656E646572206E6F7420617574686F72697A656420726567756C61746F7200 PUSH1 0x40 DUP3 ADD MSTORE PUSH1 0x60 ADD SWAP1 JUMP JUMPDEST PUSH1 0x60 DUP2 MSTORE PUSH0 PUSH2 0xB11 PUSH1 0x60 DUP4 ADD DUP7 PUSH2 0x7C3 JUMP JUMPDEST DUP3 DUP2 SUB PUSH1 0x20 DUP5 ADD MSTORE PUSH2 0xB23 DUP2 DUP7 PUSH2 0x7C3 JUMP JUMPDEST SWAP2 POP POP DUP3 PUSH1 0x40 DUP4 ADD MSTORE SWAP5 SWAP4 POP POP POP POP JUMP JUMPDEST PUSH1 0x40 DUP2 MSTORE PUSH0 PUSH2 0xB46 PUSH1 0x40 DUP4 ADD DUP6 PUSH2 0x7C3 JUMP JUMPDEST SWAP1 POP DUP3 PUSH1 0x20 DUP4 ADD MSTORE SWAP4 SWAP3 POP POP POP JUMP JUMPDEST PUSH8 0xFFFFFFFFFFFFFFFF DUP4 GT ISZERO PUSH2 0xB6D JUMPI PUSH2 0xB6D PUSH2 0x6C6 JUMP JUMPDEST PUSH2 0xB81 DUP4 PUSH2 0xB7B DUP4 SLOAD PUSH2 0x90C JUMP JUMPDEST DUP4 PUSH2 0x944 JUMP JUMPDEST PUSH0 PUSH1 0x1F DUP5 GT PUSH1 0x1 DUP2 EQ PUSH2 0xBB2 JUMPI PUSH0 DUP6 ISZERO PUSH2 0xB9B JUMPI POP DUP4 DUP3 ADD CALLDATALOAD JUMPDEST PUSH0 NOT PUSH1 0x3 DUP8 SWAP1 SHL SHR NOT AND PUSH1 0x1 DUP7 SWAP1 SHL OR DUP4 SSTORE PUSH2 0x988 JUMP JUMPDEST PUSH0 DUP4 DUP2 MSTORE PUSH1 0x20 DUP2 KECCAK256 PUSH1 0x1F NOT DUP8 AND SWAP2 JUMPDEST DUP3 DUP2 LT ISZERO PUSH2 0xBE1 JUMPI DUP7 DUP6 ADD CALLDATALOAD DUP3 SSTORE PUSH1 0x20 SWAP5 DUP6 ADD SWAP5 PUSH1 0x1 SWAP1 SWAP3 ADD SWAP2 ADD PUSH2 0xBC1 JUMP JUMPDEST POP DUP7 DUP3 LT ISZERO PUSH2 0xBFD JUMPI PUSH0 NOT PUSH1 0xF8 DUP9 PUSH1 0x3 SHL AND SHR NOT DUP5 DUP8 ADD CALLDATALOAD AND DUP2 SSTORE JUMPDEST POP POP PUSH1 0x1 DUP6 PUSH1 0x1 SHL ADD DUP4 SSTORE POP POP POP POP POP JUMP INVALID LOG2 PUSH5 0x6970667358 0x22 SLT KECCAK256 EQ SWAP11 MSTORE8 0xCA 0xAF SHL PUSH32 0x76304D3E2F5C7ADBF820D2C1D0C47FF2595730AF4B91418BD464736F6C634300 ADDMOD NOT STOP CALLER "
				},
				"gasEstimates": {
					"creation": {
						"codeDepositCost": "628200",
						"executionCost": "24897",
						"totalCost": "653097"
					},
					"external": {
						"authorizedRegulators(address)": "2560",
						"grantRegulatorAccess(address)": "26812",
						"logTelemetryData(string,string)": "infinite",
						"owner()": "2358",
						"performMaintenanceCheck(string)": "infinite",
						"retrieveDataFromIPFS(bytes32)": "infinite",
						"retrieveTelemetryData(string,string)": "infinite",
						"revokeRegulatorAccess(address)": "26795",
						"storeCrashReport(bytes32,bytes)": "infinite",
						"upgradeContract(address)": "3940",
						"verifyFlightPath(string,string)": "infinite"
					},
					"internal": {
						"storeDataOnIPFS(string memory,bytes32)": "infinite"
					}
				},
				"methodIdentifiers": {
					"authorizedRegulators(address)": "5815913c",
					"grantRegulatorAccess(address)": "ec1e74bb",
					"logTelemetryData(string,string)": "358ce0b1",
					"owner()": "8da5cb5b",
					"performMaintenanceCheck(string)": "a222b707",
					"retrieveDataFromIPFS(bytes32)": "38ddf0ac",
					"retrieveTelemetryData(string,string)": "17b702e5",
					"revokeRegulatorAccess(address)": "79be7659",
					"storeCrashReport(bytes32,bytes)": "eedeb218",
					"upgradeContract(address)": "eb2c0223",
					"verifyFlightPath(string,string)": "7d8993b9"
				}
			},
			"storageLayout": {
				"storage": [
					{
						"astId": 31,
						"contract": "Contracts/CreoEvtolBlockchain.sol:CreoEvtolBlockchain",
						"label": "evtolData",
						"offset": 0,
						"slot": "0",
						"type": "t_mapping(t_address,t_mapping(t_string_memory_ptr,t_string_storage))"
					},
					{
						"astId": 35,
						"contract": "Contracts/CreoEvtolBlockchain.sol:CreoEvtolBlockchain",
						"label": "authorizedRegulators",
						"offset": 0,
						"slot": "1",
						"type": "t_mapping(t_address,t_bool)"
					},
					{
						"astId": 39,
						"contract": "Contracts/CreoEvtolBlockchain.sol:CreoEvtolBlockchain",
						"label": "dataHashes",
						"offset": 0,
						"slot": "2",
						"type": "t_mapping(t_bytes32,t_string_storage)"
					},
					{
						"astId": 43,
						"contract": "Contracts/CreoEvtolBlockchain.sol:CreoEvtolBlockchain",
						"label": "crashReports",
						"offset": 0,
						"slot": "3",
						"type": "t_mapping(t_bytes32,t_bytes_storage)"
					},
					{
						"astId": 45,
						"contract": "Contracts/CreoEvtolBlockchain.sol:CreoEvtolBlockchain",
						"label": "owner",
						"offset": 0,
						"slot": "4",
						"type": "t_address"
					}
				],
				"types": {
					"t_address": {
						"encoding": "inplace",
						"label": "address",
						"numberOfBytes": "20"
					},
					"t_bool": {
						"encoding": "inplace",
						"label": "bool",
						"numberOfBytes": "1"
					},
					"t_bytes32": {
						"encoding": "inplace",
						"label": "bytes32",
						"numberOfBytes": "32"
					},
					"t_bytes_storage": {
						"encoding": "bytes",
						"label": "bytes",
						"numberOfBytes": "32"
					},
					"t_mapping(t_address,t_bool)": {
						"encoding": "mapping",
						"key": "t_address",
						"label": "mapping(address => bool)",
						"numberOfBytes": "32",
						"value": "t_bool"
					},
					"t_mapping(t_address,t_mapping(t_string_memory_ptr,t_string_storage))": {
						"encoding": "mapping",
						"key": "t_address",
						"label": "mapping(address => mapping(string => string))",
						"numberOfBytes": "32",
						"value": "t_mapping(t_string_memory_ptr,t_string_storage)"
					},
					"t_mapping(t_bytes32,t_bytes_storage)": {
						"encoding": "mapping",
						"key": "t_bytes32",
						"label": "mapping(bytes32 => bytes)",
						"numberOfBytes": "32",
						"value": "t_bytes_storage"
					},
					"t_mapping(t_bytes32,t_string_storage)": {
						"encoding": "mapping",
						"key": "t_bytes32",
						"label": "mapping(bytes32 => string)",
						"numberOfBytes": "32",
						"value": "t_string_storage"
					},
					"t_mapping(t_string_memory_ptr,t_string_storage)": {
						"encoding": "mapping",
						"key": "t_string_memory_ptr",
						"label": "mapping(string => string)",
						"numberOfBytes": "32",
						"value": "t_string_storage"
					},
					"t_string_memory_ptr": {
						"encoding": "bytes",
						"label": "string",
						"numberOfBytes": "32"
					},
					"t_string_storage": {
						"encoding": "bytes",
						"label": "string",
						"numberOfBytes": "32"
					}
				}
			},
			"userdoc": {
				"kind": "user",
				"methods": {},
				"version": 1
			}
		}
	}
}